{
  "_format": "hh-sol-artifact-1",
  "contractName": "LetsAskNftContract",
  "sourceName": "contracts/LetsAskNftContract.sol",
  "abi": [
    {
      "inputs": [],
      "stateMutability": "nonpayable",
      "type": "constructor"
    },
    {
      "anonymous": false,
      "inputs": [
        {
          "indexed": true,
          "internalType": "address",
          "name": "owner",
          "type": "address"
        },
        {
          "indexed": true,
          "internalType": "address",
          "name": "approved",
          "type": "address"
        },
        {
          "indexed": true,
          "internalType": "uint256",
          "name": "tokenId",
          "type": "uint256"
        }
      ],
      "name": "Approval",
      "type": "event"
    },
    {
      "anonymous": false,
      "inputs": [
        {
          "indexed": true,
          "internalType": "address",
          "name": "owner",
          "type": "address"
        },
        {
          "indexed": true,
          "internalType": "address",
          "name": "operator",
          "type": "address"
        },
        {
          "indexed": false,
          "internalType": "bool",
          "name": "approved",
          "type": "bool"
        }
      ],
      "name": "ApprovalForAll",
      "type": "event"
    },
    {
      "anonymous": false,
      "inputs": [
        {
          "indexed": false,
          "internalType": "address",
          "name": "sender",
          "type": "address"
        },
        {
          "indexed": false,
          "internalType": "uint256",
          "name": "tokenId",
          "type": "uint256"
        }
      ],
      "name": "LetsAskNftMinted",
      "type": "event"
    },
    {
      "anonymous": false,
      "inputs": [
        {
          "indexed": true,
          "internalType": "address",
          "name": "from",
          "type": "address"
        },
        {
          "indexed": true,
          "internalType": "address",
          "name": "to",
          "type": "address"
        },
        {
          "indexed": true,
          "internalType": "uint256",
          "name": "tokenId",
          "type": "uint256"
        }
      ],
      "name": "Transfer",
      "type": "event"
    },
    {
      "inputs": [
        {
          "internalType": "address",
          "name": "to",
          "type": "address"
        },
        {
          "internalType": "uint256",
          "name": "tokenId",
          "type": "uint256"
        }
      ],
      "name": "approve",
      "outputs": [],
      "stateMutability": "nonpayable",
      "type": "function"
    },
    {
      "inputs": [
        {
          "internalType": "address",
          "name": "owner",
          "type": "address"
        }
      ],
      "name": "balanceOf",
      "outputs": [
        {
          "internalType": "uint256",
          "name": "",
          "type": "uint256"
        }
      ],
      "stateMutability": "view",
      "type": "function"
    },
    {
      "inputs": [
        {
          "internalType": "uint256",
          "name": "tokenId",
          "type": "uint256"
        }
      ],
      "name": "getApproved",
      "outputs": [
        {
          "internalType": "address",
          "name": "",
          "type": "address"
        }
      ],
      "stateMutability": "view",
      "type": "function"
    },
    {
      "inputs": [
        {
          "internalType": "address",
          "name": "owner",
          "type": "address"
        },
        {
          "internalType": "address",
          "name": "operator",
          "type": "address"
        }
      ],
      "name": "isApprovedForAll",
      "outputs": [
        {
          "internalType": "bool",
          "name": "",
          "type": "bool"
        }
      ],
      "stateMutability": "view",
      "type": "function"
    },
    {
      "inputs": [
        {
          "internalType": "string",
          "name": "questionTo",
          "type": "string"
        },
        {
          "internalType": "string",
          "name": "question",
          "type": "string"
        }
      ],
      "name": "mintLetsAskNft",
      "outputs": [],
      "stateMutability": "nonpayable",
      "type": "function"
    },
    {
      "inputs": [],
      "name": "name",
      "outputs": [
        {
          "internalType": "string",
          "name": "",
          "type": "string"
        }
      ],
      "stateMutability": "view",
      "type": "function"
    },
    {
      "inputs": [
        {
          "internalType": "uint256",
          "name": "tokenId",
          "type": "uint256"
        }
      ],
      "name": "ownerOf",
      "outputs": [
        {
          "internalType": "address",
          "name": "",
          "type": "address"
        }
      ],
      "stateMutability": "view",
      "type": "function"
    },
    {
      "inputs": [
        {
          "internalType": "address",
          "name": "from",
          "type": "address"
        },
        {
          "internalType": "address",
          "name": "to",
          "type": "address"
        },
        {
          "internalType": "uint256",
          "name": "tokenId",
          "type": "uint256"
        }
      ],
      "name": "safeTransferFrom",
      "outputs": [],
      "stateMutability": "nonpayable",
      "type": "function"
    },
    {
      "inputs": [
        {
          "internalType": "address",
          "name": "from",
          "type": "address"
        },
        {
          "internalType": "address",
          "name": "to",
          "type": "address"
        },
        {
          "internalType": "uint256",
          "name": "tokenId",
          "type": "uint256"
        },
        {
          "internalType": "bytes",
          "name": "_data",
          "type": "bytes"
        }
      ],
      "name": "safeTransferFrom",
      "outputs": [],
      "stateMutability": "nonpayable",
      "type": "function"
    },
    {
      "inputs": [
        {
          "internalType": "address",
          "name": "operator",
          "type": "address"
        },
        {
          "internalType": "bool",
          "name": "approved",
          "type": "bool"
        }
      ],
      "name": "setApprovalForAll",
      "outputs": [],
      "stateMutability": "nonpayable",
      "type": "function"
    },
    {
      "inputs": [
        {
          "internalType": "bytes4",
          "name": "interfaceId",
          "type": "bytes4"
        }
      ],
      "name": "supportsInterface",
      "outputs": [
        {
          "internalType": "bool",
          "name": "",
          "type": "bool"
        }
      ],
      "stateMutability": "view",
      "type": "function"
    },
    {
      "inputs": [],
      "name": "symbol",
      "outputs": [
        {
          "internalType": "string",
          "name": "",
          "type": "string"
        }
      ],
      "stateMutability": "view",
      "type": "function"
    },
    {
      "inputs": [
        {
          "internalType": "uint256",
          "name": "tokenId",
          "type": "uint256"
        }
      ],
      "name": "tokenURI",
      "outputs": [
        {
          "internalType": "string",
          "name": "",
          "type": "string"
        }
      ],
      "stateMutability": "view",
      "type": "function"
    },
    {
      "inputs": [
        {
          "internalType": "address",
          "name": "from",
          "type": "address"
        },
        {
          "internalType": "address",
          "name": "to",
          "type": "address"
        },
        {
          "internalType": "uint256",
          "name": "tokenId",
          "type": "uint256"
        }
      ],
      "name": "transferFrom",
      "outputs": [],
      "stateMutability": "nonpayable",
      "type": "function"
    }
  ],
  "bytecode": "0x6080604052604051806102c00160405280610298815260200162003c8a6102989139600890805190602001906200003892919062000236565b5060405180606001604052806027815260200162003f2260279139600990805190602001906200006a92919062000236565b503480156200007857600080fd5b506040518060400160405280600781526020017f4c65747341736b000000000000000000000000000000000000000000000000008152506040518060400160405280600281526020017f4c410000000000000000000000000000000000000000000000000000000000008152508160009080519060200190620000fd92919062000236565b5080600190805190602001906200011692919062000236565b505050620001646040518060400160405280601e81526020017f4c65747341736b4e6674436f6e747261637420436f6e7374727563746f7200008152506200016a60201b62000d5a1760201c565b62000413565b6200020a8160405160240162000181919062000327565b6040516020818303038152906040527f41304fac000000000000000000000000000000000000000000000000000000007bffffffffffffffffffffffffffffffffffffffffffffffffffffffff19166020820180517bffffffffffffffffffffffffffffffffffffffffffffffffffffffff83818316178352505050506200020d60201b60201c565b50565b60008151905060006a636f6e736f6c652e6c6f679050602083016000808483855afa5050505050565b82805462000244906200039d565b90600052602060002090601f016020900481019282620002685760008555620002b4565b82601f106200028357805160ff1916838001178555620002b4565b82800160010185558215620002b4579182015b82811115620002b357825182559160200191906001019062000296565b5b509050620002c39190620002c7565b5090565b5b80821115620002e2576000816000905550600101620002c8565b5090565b6000620002f3826200034b565b620002ff818562000356565b93506200031181856020860162000367565b6200031c8162000402565b840191505092915050565b60006020820190508181036000830152620003438184620002e6565b905092915050565b600081519050919050565b600082825260208201905092915050565b60005b83811015620003875780820151818401526020810190506200036a565b8381111562000397576000848401525b50505050565b60006002820490506001821680620003b657607f821691505b60208210811415620003cd57620003cc620003d3565b5b50919050565b7f4e487b7100000000000000000000000000000000000000000000000000000000600052602260045260246000fd5b6000601f19601f8301169050919050565b61386780620004236000396000f3fe608060405234801561001057600080fd5b50600436106100ea5760003560e01c80636352211e1161008c578063a22cb46511610066578063a22cb4651461025b578063b88d4fde14610277578063c87b56dd14610293578063e985e9c5146102c3576100ea565b80636352211e146101dd57806370a082311461020d57806395d89b411461023d576100ea565b8063095ea7b3116100c8578063095ea7b31461016d57806323b872dd146101895780632862b147146101a557806342842e0e146101c1576100ea565b806301ffc9a7146100ef57806306fdde031461011f578063081812fc1461013d575b600080fd5b6101096004803603810190610104919061219c565b6102f3565b604051610116919061294f565b60405180910390f35b6101276103d5565b604051610134919061296a565b60405180910390f35b6101576004803603810190610152919061225a565b610467565b60405161016491906128bf565b60405180910390f35b61018760048036038101906101829190612160565b6104ec565b005b6101a3600480360381019061019e919061205a565b610604565b005b6101bf60048036038101906101ba91906121ee565b610664565b005b6101db60048036038101906101d6919061205a565b6108e0565b005b6101f760048036038101906101f2919061225a565b610900565b60405161020491906128bf565b60405180910390f35b61022760048036038101906102229190611ff5565b6109b2565b6040516102349190612c4a565b60405180910390f35b610245610a6a565b604051610252919061296a565b60405180910390f35b61027560048036038101906102709190612124565b610afc565b005b610291600480360381019061028c91906120a9565b610b12565b005b6102ad60048036038101906102a8919061225a565b610b74565b6040516102ba919061296a565b60405180910390f35b6102dd60048036038101906102d8919061201e565b610cc6565b6040516102ea919061294f565b60405180910390f35b60007f80ac58cd000000000000000000000000000000000000000000000000000000007bffffffffffffffffffffffffffffffffffffffffffffffffffffffff1916827bffffffffffffffffffffffffffffffffffffffffffffffffffffffff191614806103be57507f5b5e139f000000000000000000000000000000000000000000000000000000007bffffffffffffffffffffffffffffffffffffffffffffffffffffffff1916827bffffffffffffffffffffffffffffffffffffffffffffffffffffffff1916145b806103ce57506103cd82610df3565b5b9050919050565b6060600080546103e490612f0f565b80601f016020809104026020016040519081016040528092919081815260200182805461041090612f0f565b801561045d5780601f106104325761010080835404028352916020019161045d565b820191906000526020600020905b81548152906001019060200180831161044057829003601f168201915b5050505050905090565b600061047282610e5d565b6104b1576040517f08c379a00000000000000000000000000000000000000000000000000000000081526004016104a890612b6a565b60405180910390fd5b6004600083815260200190815260200160002060009054906101000a900473ffffffffffffffffffffffffffffffffffffffff169050919050565b60006104f782610900565b90508073ffffffffffffffffffffffffffffffffffffffff168373ffffffffffffffffffffffffffffffffffffffff161415610568576040517f08c379a000000000000000000000000000000000000000000000000000000000815260040161055f90612bea565b60405180910390fd5b8073ffffffffffffffffffffffffffffffffffffffff16610587610ec9565b73ffffffffffffffffffffffffffffffffffffffff1614806105b657506105b5816105b0610ec9565b610cc6565b5b6105f5576040517f08c379a00000000000000000000000000000000000000000000000000000000081526004016105ec90612aaa565b60405180910390fd5b6105ff8383610ed1565b505050565b61061561060f610ec9565b82610f8a565b610654576040517f08c379a000000000000000000000000000000000000000000000000000000000815260040161064b90612c2a565b60405180910390fd5b61065f838383611068565b505050565b60008151116106a8576040517f08c379a000000000000000000000000000000000000000000000000000000000815260040161069f90612c0a565b60405180910390fd5b6101198151106106ed576040517f08c379a00000000000000000000000000000000000000000000000000000000081526004016106e490612bca565b60405180910390fd5b6000825111610731576040517f08c379a000000000000000000000000000000000000000000000000000000000815260040161072890612b8a565b60405180910390fd5b600b825110610775576040517f08c379a000000000000000000000000000000000000000000000000000000000815260040161076c90612a8a565b60405180910390fd5b600061078160076112cf565b9050600060088484600960405160200161079e94939291906127ca565b604051602081830303815290604052905060006107ba836112dd565b856040516020016107cc929190612885565b60405160208183030381529060405290506000610811826107ec8561148a565b6040516020016107fd92919061281e565b60405160208183030381529060405261148a565b90506000816040516020016108269190612863565b604051602081830303815290604052905061084081610d5a565b61084a3386611629565b6108548582611647565b61085e60076116bb565b61089e6040518060400160405280601281526020017f4c65747341736b204e4654206d696e746564000000000000000000000000000081525086336116d1565b7f8e2d16e8d2c39586c5f5c3e591adff4810db2d56b8a819539d1aca647438f2f733866040516108cf929190612926565b60405180910390a150505050505050565b6108fb83838360405180602001604052806000815250610b12565b505050565b6000806002600084815260200190815260200160002060009054906101000a900473ffffffffffffffffffffffffffffffffffffffff169050600073ffffffffffffffffffffffffffffffffffffffff168173ffffffffffffffffffffffffffffffffffffffff1614156109a9576040517f08c379a00000000000000000000000000000000000000000000000000000000081526004016109a090612aea565b60405180910390fd5b80915050919050565b60008073ffffffffffffffffffffffffffffffffffffffff168273ffffffffffffffffffffffffffffffffffffffff161415610a23576040517f08c379a0000000000000000000000000000000000000000000000000000000008152600401610a1a90612aca565b60405180910390fd5b600360008373ffffffffffffffffffffffffffffffffffffffff1673ffffffffffffffffffffffffffffffffffffffff168152602001908152602001600020549050919050565b606060018054610a7990612f0f565b80601f0160208091040260200160405190810160405280929190818152602001828054610aa590612f0f565b8015610af25780601f10610ac757610100808354040283529160200191610af2565b820191906000526020600020905b815481529060010190602001808311610ad557829003601f168201915b5050505050905090565b610b0e610b07610ec9565b8383611770565b5050565b610b23610b1d610ec9565b83610f8a565b610b62576040517f08c379a0000000000000000000000000000000000000000000000000000000008152600401610b5990612c2a565b60405180910390fd5b610b6e848484846118dd565b50505050565b6060610b7f82610e5d565b610bbe576040517f08c379a0000000000000000000000000000000000000000000000000000000008152600401610bb590612b4a565b60405180910390fd5b6000600660008481526020019081526020016000208054610bde90612f0f565b80601f0160208091040260200160405190810160405280929190818152602001828054610c0a90612f0f565b8015610c575780601f10610c2c57610100808354040283529160200191610c57565b820191906000526020600020905b815481529060010190602001808311610c3a57829003601f168201915b505050505090506000610c68611939565b9050600081511415610c7e578192505050610cc1565b600082511115610cb3578082604051602001610c9b9291906127a6565b60405160208183030381529060405292505050610cc1565b610cbc84611950565b925050505b919050565b6000600560008473ffffffffffffffffffffffffffffffffffffffff1673ffffffffffffffffffffffffffffffffffffffff16815260200190815260200160002060008373ffffffffffffffffffffffffffffffffffffffff1673ffffffffffffffffffffffffffffffffffffffff16815260200190815260200160002060009054906101000a900460ff16905092915050565b610df081604051602401610d6e919061296a565b6040516020818303038152906040527f41304fac000000000000000000000000000000000000000000000000000000007bffffffffffffffffffffffffffffffffffffffffffffffffffffffff19166020820180517bffffffffffffffffffffffffffffffffffffffffffffffffffffffff83818316178352505050506119f7565b50565b60007f01ffc9a7000000000000000000000000000000000000000000000000000000007bffffffffffffffffffffffffffffffffffffffffffffffffffffffff1916827bffffffffffffffffffffffffffffffffffffffffffffffffffffffff1916149050919050565b60008073ffffffffffffffffffffffffffffffffffffffff166002600084815260200190815260200160002060009054906101000a900473ffffffffffffffffffffffffffffffffffffffff1673ffffffffffffffffffffffffffffffffffffffff1614159050919050565b600033905090565b816004600083815260200190815260200160002060006101000a81548173ffffffffffffffffffffffffffffffffffffffff021916908373ffffffffffffffffffffffffffffffffffffffff160217905550808273ffffffffffffffffffffffffffffffffffffffff16610f4483610900565b73ffffffffffffffffffffffffffffffffffffffff167f8c5be1e5ebec7d5bd14f71427d1e84f3dd0314c0f7b2291e5b200ac8c7c3b92560405160405180910390a45050565b6000610f9582610e5d565b610fd4576040517f08c379a0000000000000000000000000000000000000000000000000000000008152600401610fcb90612a6a565b60405180910390fd5b6000610fdf83610900565b90508073ffffffffffffffffffffffffffffffffffffffff168473ffffffffffffffffffffffffffffffffffffffff16148061104e57508373ffffffffffffffffffffffffffffffffffffffff1661103684610467565b73ffffffffffffffffffffffffffffffffffffffff16145b8061105f575061105e8185610cc6565b5b91505092915050565b8273ffffffffffffffffffffffffffffffffffffffff1661108882610900565b73ffffffffffffffffffffffffffffffffffffffff16146110de576040517f08c379a00000000000000000000000000000000000000000000000000000000081526004016110d5906129ea565b60405180910390fd5b600073ffffffffffffffffffffffffffffffffffffffff168273ffffffffffffffffffffffffffffffffffffffff16141561114e576040517f08c379a000000000000000000000000000000000000000000000000000000000815260040161114590612a2a565b60405180910390fd5b611159838383611a20565b611164600082610ed1565b6001600360008573ffffffffffffffffffffffffffffffffffffffff1673ffffffffffffffffffffffffffffffffffffffff16815260200190815260200160002060008282546111b49190612e25565b925050819055506001600360008473ffffffffffffffffffffffffffffffffffffffff1673ffffffffffffffffffffffffffffffffffffffff168152602001908152602001600020600082825461120b9190612d44565b92505081905550816002600083815260200190815260200160002060006101000a81548173ffffffffffffffffffffffffffffffffffffffff021916908373ffffffffffffffffffffffffffffffffffffffff160217905550808273ffffffffffffffffffffffffffffffffffffffff168473ffffffffffffffffffffffffffffffffffffffff167fddf252ad1be2c89b69c2b068fc378daa952ba7f163c4a11628f55a4df523b3ef60405160405180910390a46112ca838383611a25565b505050565b600081600001549050919050565b60606000821415611325576040518060400160405280600181526020017f30000000000000000000000000000000000000000000000000000000000000008152509050611485565b600082905060005b6000821461135757808061134090612f72565b915050600a826113509190612d9a565b915061132d565b60008167ffffffffffffffff811115611399577f4e487b7100000000000000000000000000000000000000000000000000000000600052604160045260246000fd5b6040519080825280601f01601f1916602001820160405280156113cb5781602001600182028036833780820191505090505b5090505b6000851461147e576001826113e49190612e25565b9150600a856113f39190612fbb565b60306113ff9190612d44565b60f81b81838151811061143b577f4e487b7100000000000000000000000000000000000000000000000000000000600052603260045260246000fd5b60200101907effffffffffffffffffffffffffffffffffffffffffffffffffffffffffffff1916908160001a905350600a856114779190612d9a565b94506113cf565b8093505050505b919050565b60606000825114156114ad57604051806020016040528060008152509050611624565b60006040518060600160405280604081526020016137f260409139905060006003600285516114dc9190612d44565b6114e69190612d9a565b60046114f29190612dcb565b905060006020826115039190612d44565b67ffffffffffffffff811115611542577f4e487b7100000000000000000000000000000000000000000000000000000000600052604160045260246000fd5b6040519080825280601f01601f1916602001820160405280156115745781602001600182028036833780820191505090505b509050818152600183018586518101602084015b818310156115e3576003830192508251603f8160121c168501518253600182019150603f81600c1c168501518253600182019150603f8160061c168501518253600182019150603f8116850151825360018201915050611588565b6003895106600181146115fd576002811461160d57611618565b613d3d60f01b6002830352611618565b603d60f81b60018303525b50505050508093505050505b919050565b611643828260405180602001604052806000815250611a2a565b5050565b61165082610e5d565b61168f576040517f08c379a000000000000000000000000000000000000000000000000000000000815260040161168690612b0a565b60405180910390fd5b806006600084815260200190815260200160002090805190602001906116b6929190611e19565b505050565b6001816000016000828254019250508190555050565b61176b8383836040516024016116e99392919061298c565b6040516020818303038152906040527fe3849f79000000000000000000000000000000000000000000000000000000007bffffffffffffffffffffffffffffffffffffffffffffffffffffffff19166020820180517bffffffffffffffffffffffffffffffffffffffffffffffffffffffff83818316178352505050506119f7565b505050565b8173ffffffffffffffffffffffffffffffffffffffff168373ffffffffffffffffffffffffffffffffffffffff1614156117df576040517f08c379a00000000000000000000000000000000000000000000000000000000081526004016117d690612a4a565b60405180910390fd5b80600560008573ffffffffffffffffffffffffffffffffffffffff1673ffffffffffffffffffffffffffffffffffffffff16815260200190815260200160002060008473ffffffffffffffffffffffffffffffffffffffff1673ffffffffffffffffffffffffffffffffffffffff16815260200190815260200160002060006101000a81548160ff0219169083151502179055508173ffffffffffffffffffffffffffffffffffffffff168373ffffffffffffffffffffffffffffffffffffffff167f17307eab39ab6107e8899845ad3d59bd9653f200f220920489ca2b5937696c31836040516118d0919061294f565b60405180910390a3505050565b6118e8848484611068565b6118f484848484611a85565b611933576040517f08c379a000000000000000000000000000000000000000000000000000000000815260040161192a906129ca565b60405180910390fd5b50505050565b606060405180602001604052806000815250905090565b606061195b82610e5d565b61199a576040517f08c379a000000000000000000000000000000000000000000000000000000000815260040161199190612baa565b60405180910390fd5b60006119a4611939565b905060008151116119c457604051806020016040528060008152506119ef565b806119ce846112dd565b6040516020016119df9291906127a6565b6040516020818303038152906040525b915050919050565b60008151905060006a636f6e736f6c652e6c6f679050602083016000808483855afa5050505050565b505050565b505050565b611a348383611c1c565b611a416000848484611a85565b611a80576040517f08c379a0000000000000000000000000000000000000000000000000000000008152600401611a77906129ca565b60405180910390fd5b505050565b6000611aa68473ffffffffffffffffffffffffffffffffffffffff16611df6565b15611c0f578373ffffffffffffffffffffffffffffffffffffffff1663150b7a02611acf610ec9565b8786866040518563ffffffff1660e01b8152600401611af194939291906128da565b602060405180830381600087803b158015611b0b57600080fd5b505af1925050508015611b3c57506040513d601f19601f82011682018060405250810190611b3991906121c5565b60015b611bbf573d8060008114611b6c576040519150601f19603f3d011682016040523d82523d6000602084013e611b71565b606091505b50600081511415611bb7576040517f08c379a0000000000000000000000000000000000000000000000000000000008152600401611bae906129ca565b60405180910390fd5b805181602001fd5b63150b7a0260e01b7bffffffffffffffffffffffffffffffffffffffffffffffffffffffff1916817bffffffffffffffffffffffffffffffffffffffffffffffffffffffff191614915050611c14565b600190505b949350505050565b600073ffffffffffffffffffffffffffffffffffffffff168273ffffffffffffffffffffffffffffffffffffffff161415611c8c576040517f08c379a0000000000000000000000000000000000000000000000000000000008152600401611c8390612b2a565b60405180910390fd5b611c9581610e5d565b15611cd5576040517f08c379a0000000000000000000000000000000000000000000000000000000008152600401611ccc90612a0a565b60405180910390fd5b611ce160008383611a20565b6001600360008473ffffffffffffffffffffffffffffffffffffffff1673ffffffffffffffffffffffffffffffffffffffff1681526020019081526020016000206000828254611d319190612d44565b92505081905550816002600083815260200190815260200160002060006101000a81548173ffffffffffffffffffffffffffffffffffffffff021916908373ffffffffffffffffffffffffffffffffffffffff160217905550808273ffffffffffffffffffffffffffffffffffffffff16600073ffffffffffffffffffffffffffffffffffffffff167fddf252ad1be2c89b69c2b068fc378daa952ba7f163c4a11628f55a4df523b3ef60405160405180910390a4611df260008383611a25565b5050565b6000808273ffffffffffffffffffffffffffffffffffffffff163b119050919050565b828054611e2590612f0f565b90600052602060002090601f016020900481019282611e475760008555611e8e565b82601f10611e6057805160ff1916838001178555611e8e565b82800160010185558215611e8e579182015b82811115611e8d578251825591602001919060010190611e72565b5b509050611e9b9190611e9f565b5090565b5b80821115611eb8576000816000905550600101611ea0565b5090565b6000611ecf611eca84612c8a565b612c65565b905082815260208101848484011115611ee757600080fd5b611ef2848285612ecd565b509392505050565b6000611f0d611f0884612cbb565b612c65565b905082815260208101848484011115611f2557600080fd5b611f30848285612ecd565b509392505050565b600081359050611f4781613795565b92915050565b600081359050611f5c816137ac565b92915050565b600081359050611f71816137c3565b92915050565b600081519050611f86816137c3565b92915050565b600082601f830112611f9d57600080fd5b8135611fad848260208601611ebc565b91505092915050565b600082601f830112611fc757600080fd5b8135611fd7848260208601611efa565b91505092915050565b600081359050611fef816137da565b92915050565b60006020828403121561200757600080fd5b600061201584828501611f38565b91505092915050565b6000806040838503121561203157600080fd5b600061203f85828601611f38565b925050602061205085828601611f38565b9150509250929050565b60008060006060848603121561206f57600080fd5b600061207d86828701611f38565b935050602061208e86828701611f38565b925050604061209f86828701611fe0565b9150509250925092565b600080600080608085870312156120bf57600080fd5b60006120cd87828801611f38565b94505060206120de87828801611f38565b93505060406120ef87828801611fe0565b925050606085013567ffffffffffffffff81111561210c57600080fd5b61211887828801611f8c565b91505092959194509250565b6000806040838503121561213757600080fd5b600061214585828601611f38565b925050602061215685828601611f4d565b9150509250929050565b6000806040838503121561217357600080fd5b600061218185828601611f38565b925050602061219285828601611fe0565b9150509250929050565b6000602082840312156121ae57600080fd5b60006121bc84828501611f62565b91505092915050565b6000602082840312156121d757600080fd5b60006121e584828501611f77565b91505092915050565b6000806040838503121561220157600080fd5b600083013567ffffffffffffffff81111561221b57600080fd5b61222785828601611fb6565b925050602083013567ffffffffffffffff81111561224457600080fd5b61225085828601611fb6565b9150509250929050565b60006020828403121561226c57600080fd5b600061227a84828501611fe0565b91505092915050565b61228c81612e59565b82525050565b61229b81612e6b565b82525050565b60006122ac82612d01565b6122b68185612d17565b93506122c6818560208601612edc565b6122cf816130a8565b840191505092915050565b60006122e582612d0c565b6122ef8185612d28565b93506122ff818560208601612edc565b612308816130a8565b840191505092915050565b600061231e82612d0c565b6123288185612d39565b9350612338818560208601612edc565b80840191505092915050565b6000815461235181612f0f565b61235b8186612d39565b945060018216600081146123765760018114612387576123ba565b60ff198316865281860193506123ba565b61239085612cec565b60005b838110156123b257815481890152600182019150602081019050612393565b838801955050505b50505092915050565b60006123d0603283612d28565b91506123db826130b9565b604082019050919050565b60006123f3602583612d28565b91506123fe82613108565b604082019050919050565b6000612416601c83612d28565b915061242182613157565b602082019050919050565b6000612439600183612d39565b915061244482613180565b600182019050919050565b600061245c602483612d28565b9150612467826131a9565b604082019050919050565b600061247f601983612d28565b915061248a826131f8565b602082019050919050565b60006124a2602c83612d28565b91506124ad82613221565b604082019050919050565b60006124c5600683612d39565b91506124d082613270565b600682019050919050565b60006124e8602983612d28565b91506124f382613299565b604082019050919050565b600061250b603883612d28565b9150612516826132e8565b604082019050919050565b600061252e602a83612d28565b915061253982613337565b604082019050919050565b6000612551602983612d28565b915061255c82613386565b604082019050919050565b6000612574602e83612d28565b915061257f826133d5565b604082019050919050565b6000612597600283612d39565b91506125a282613424565b600282019050919050565b60006125ba602083612d28565b91506125c58261344d565b602082019050919050565b60006125dd603183612d28565b91506125e882613476565b604082019050919050565b6000612600602c83612d28565b915061260b826134c5565b604082019050919050565b6000612623600e83612d28565b915061262e82613514565b602082019050919050565b6000612646600383612d39565b91506126518261353d565b600382019050919050565b6000612669602f83612d28565b915061267482613566565b604082019050919050565b600061268c600a83612d39565b9150612697826135b5565b600a82019050919050565b60006126af601e83612d28565b91506126ba826135de565b602082019050919050565b60006126d2605c83612d39565b91506126dd82613607565b605c82019050919050565b60006126f5602183612d28565b91506127008261367c565b604082019050919050565b6000612718601d83612d39565b9150612723826136cb565b601d82019050919050565b600061273b601683612d28565b9150612746826136f4565b602082019050919050565b600061275e603183612d28565b91506127698261371d565b604082019050919050565b6000612781600283612d39565b915061278c8261376c565b600282019050919050565b6127a081612ec3565b82525050565b60006127b28285612313565b91506127be8284612313565b91508190509392505050565b60006127d68287612344565b91506127e1826124b8565b91506127ed8286612313565b91506127f88261242c565b91506128048285612313565b91506128108284612344565b915081905095945050505050565b60006128298261267f565b91506128358285612313565b9150612840826126c5565b915061284c8284612313565b91506128578261258a565b91508190509392505050565b600061286e8261270b565b915061287a8284612313565b915081905092915050565b600061289082612774565b915061289c8285612313565b91506128a782612639565b91506128b38284612313565b91508190509392505050565b60006020820190506128d46000830184612283565b92915050565b60006080820190506128ef6000830187612283565b6128fc6020830186612283565b6129096040830185612797565b818103606083015261291b81846122a1565b905095945050505050565b600060408201905061293b6000830185612283565b6129486020830184612797565b9392505050565b60006020820190506129646000830184612292565b92915050565b6000602082019050818103600083015261298481846122da565b905092915050565b600060608201905081810360008301526129a681866122da565b90506129b56020830185612797565b6129c26040830184612283565b949350505050565b600060208201905081810360008301526129e3816123c3565b9050919050565b60006020820190508181036000830152612a03816123e6565b9050919050565b60006020820190508181036000830152612a2381612409565b9050919050565b60006020820190508181036000830152612a438161244f565b9050919050565b60006020820190508181036000830152612a6381612472565b9050919050565b60006020820190508181036000830152612a8381612495565b9050919050565b60006020820190508181036000830152612aa3816124db565b9050919050565b60006020820190508181036000830152612ac3816124fe565b9050919050565b60006020820190508181036000830152612ae381612521565b9050919050565b60006020820190508181036000830152612b0381612544565b9050919050565b60006020820190508181036000830152612b2381612567565b9050919050565b60006020820190508181036000830152612b43816125ad565b9050919050565b60006020820190508181036000830152612b63816125d0565b9050919050565b60006020820190508181036000830152612b83816125f3565b9050919050565b60006020820190508181036000830152612ba381612616565b9050919050565b60006020820190508181036000830152612bc38161265c565b9050919050565b60006020820190508181036000830152612be3816126a2565b9050919050565b60006020820190508181036000830152612c03816126e8565b9050919050565b60006020820190508181036000830152612c238161272e565b9050919050565b60006020820190508181036000830152612c4381612751565b9050919050565b6000602082019050612c5f6000830184612797565b92915050565b6000612c6f612c80565b9050612c7b8282612f41565b919050565b6000604051905090565b600067ffffffffffffffff821115612ca557612ca4613079565b5b612cae826130a8565b9050602081019050919050565b600067ffffffffffffffff821115612cd657612cd5613079565b5b612cdf826130a8565b9050602081019050919050565b60008190508160005260206000209050919050565b600081519050919050565b600081519050919050565b600082825260208201905092915050565b600082825260208201905092915050565b600081905092915050565b6000612d4f82612ec3565b9150612d5a83612ec3565b9250827fffffffffffffffffffffffffffffffffffffffffffffffffffffffffffffffff03821115612d8f57612d8e612fec565b5b828201905092915050565b6000612da582612ec3565b9150612db083612ec3565b925082612dc057612dbf61301b565b5b828204905092915050565b6000612dd682612ec3565b9150612de183612ec3565b9250817fffffffffffffffffffffffffffffffffffffffffffffffffffffffffffffffff0483118215151615612e1a57612e19612fec565b5b828202905092915050565b6000612e3082612ec3565b9150612e3b83612ec3565b925082821015612e4e57612e4d612fec565b5b828203905092915050565b6000612e6482612ea3565b9050919050565b60008115159050919050565b60007fffffffff0000000000000000000000000000000000000000000000000000000082169050919050565b600073ffffffffffffffffffffffffffffffffffffffff82169050919050565b6000819050919050565b82818337600083830152505050565b60005b83811015612efa578082015181840152602081019050612edf565b83811115612f09576000848401525b50505050565b60006002820490506001821680612f2757607f821691505b60208210811415612f3b57612f3a61304a565b5b50919050565b612f4a826130a8565b810181811067ffffffffffffffff82111715612f6957612f68613079565b5b80604052505050565b6000612f7d82612ec3565b91507fffffffffffffffffffffffffffffffffffffffffffffffffffffffffffffffff821415612fb057612faf612fec565b5b600182019050919050565b6000612fc682612ec3565b9150612fd183612ec3565b925082612fe157612fe061301b565b5b828206905092915050565b7f4e487b7100000000000000000000000000000000000000000000000000000000600052601160045260246000fd5b7f4e487b7100000000000000000000000000000000000000000000000000000000600052601260045260246000fd5b7f4e487b7100000000000000000000000000000000000000000000000000000000600052602260045260246000fd5b7f4e487b7100000000000000000000000000000000000000000000000000000000600052604160045260246000fd5b6000601f19601f8301169050919050565b7f4552433732313a207472616e7366657220746f206e6f6e20455243373231526560008201527f63656976657220696d706c656d656e7465720000000000000000000000000000602082015250565b7f4552433732313a207472616e736665722066726f6d20696e636f72726563742060008201527f6f776e6572000000000000000000000000000000000000000000000000000000602082015250565b7f4552433732313a20746f6b656e20616c7265616479206d696e74656400000000600082015250565b7f2c00000000000000000000000000000000000000000000000000000000000000600082015250565b7f4552433732313a207472616e7366657220746f20746865207a65726f2061646460008201527f7265737300000000000000000000000000000000000000000000000000000000602082015250565b7f4552433732313a20617070726f766520746f2063616c6c657200000000000000600082015250565b7f4552433732313a206f70657261746f7220717565727920666f72206e6f6e657860008201527f697374656e7420746f6b656e0000000000000000000000000000000000000000602082015250565b7f48656c6c6f200000000000000000000000000000000000000000000000000000600082015250565b7f4d6f7265207468616e20313020636861726163746572206c656e677468206f6660008201527f20746f206669656c640000000000000000000000000000000000000000000000602082015250565b7f4552433732313a20617070726f76652063616c6c6572206973206e6f74206f7760008201527f6e6572206e6f7220617070726f76656420666f7220616c6c0000000000000000602082015250565b7f4552433732313a2062616c616e636520717565727920666f7220746865207a6560008201527f726f206164647265737300000000000000000000000000000000000000000000602082015250565b7f4552433732313a206f776e657220717565727920666f72206e6f6e657869737460008201527f656e7420746f6b656e0000000000000000000000000000000000000000000000602082015250565b7f45524337323155524953746f726167653a2055524920736574206f66206e6f6e60008201527f6578697374656e7420746f6b656e000000000000000000000000000000000000602082015250565b7f227d000000000000000000000000000000000000000000000000000000000000600082015250565b7f4552433732313a206d696e7420746f20746865207a65726f2061646472657373600082015250565b7f45524337323155524953746f726167653a2055524920717565727920666f722060008201527f6e6f6e6578697374656e7420746f6b656e000000000000000000000000000000602082015250565b7f4552433732313a20617070726f76656420717565727920666f72206e6f6e657860008201527f697374656e7420746f6b656e0000000000000000000000000000000000000000602082015250565b7f456d70747920546f204669656c64000000000000000000000000000000000000600082015250565b7f202d200000000000000000000000000000000000000000000000000000000000600082015250565b7f4552433732314d657461646174613a2055524920717565727920666f72206e6f60008201527f6e6578697374656e7420746f6b656e0000000000000000000000000000000000602082015250565b7f7b226e616d65223a202200000000000000000000000000000000000000000000600082015250565b7f4d6f7265207468616e2032383020636861726163746572206c656e6774680000600082015250565b7f222c20226465736372697074696f6e223a20224c6574732041736b202d20517560008201527f657374696f6e20746865207374617475732051756f222c2022696d616765223a60208201527f2022646174613a696d6167652f7376672b786d6c3b6261736536342c00000000604082015250565b7f4552433732313a20617070726f76616c20746f2063757272656e74206f776e6560008201527f7200000000000000000000000000000000000000000000000000000000000000602082015250565b7f646174613a6170706c69636174696f6e2f6a736f6e3b6261736536342c000000600082015250565b7f456d707479207175657374696f6e20746f206d696e7400000000000000000000600082015250565b7f4552433732313a207472616e736665722063616c6c6572206973206e6f74206f60008201527f776e6572206e6f7220617070726f766564000000000000000000000000000000602082015250565b7f5123000000000000000000000000000000000000000000000000000000000000600082015250565b61379e81612e59565b81146137a957600080fd5b50565b6137b581612e6b565b81146137c057600080fd5b50565b6137cc81612e77565b81146137d757600080fd5b50565b6137e381612ec3565b81146137ee57600080fd5b5056fe4142434445464748494a4b4c4d4e4f505152535455565758595a6162636465666768696a6b6c6d6e6f707172737475767778797a303132333435363738392b2fa26469706673582212209a7d4f1a646ef622d9a91eae05fa2e1ef3c1b57362ba0a1e71f4446d3fbd04ab64736f6c634300080400333c73766720786d6c6e733d27687474703a2f2f7777772e77332e6f72672f323030302f73766727207072657365727665417370656374526174696f3d27784d696e594d696e206d656574272076696577426f783d273020302035303020353030273e203c726563742077696474683d273130302527206865696768743d2731303025272066696c6c3d27626c61636b27202f3e203c666f726569676e4f626a65637420783d27302720793d2730272077696474683d273130302527206865696768743d2731303025273e203c626f647920786d6c6e733d27687474703a2f2f7777772e77332e6f72672f313939392f7868746d6c273e203c646976207374796c653d2720666f6e742d73697a653a20323070783b20706f736974696f6e3a206162736f6c7574653b20746f703a203530253b206c6566743a203530253b202d6d732d7472616e73666f726d3a207472616e736c61746558282d35302529207472616e736c61746559282d353025293b202d7765626b69742d7472616e73666f726d3a207472616e736c617465282d3530252c202d353025293b207472616e73666f726d3a207472616e736c617465282d3530252c202d353025293b273e203c702069643d277465787427207374796c653d27746578742d616c69676e3a2063656e7465723b20766572746963616c2d616c69676e3a206d6964646c653b206261636b67726f756e643a202d7765626b69742d6c696e6561722d6772616469656e74286c6566742c20234643354337442c2023364138324642293b206261636b67726f756e642d636c69703a20746578743b202d7765626b69742d6261636b67726f756e642d636c69703a20746578743b202d7765626b69742d746578742d66696c6c2d636f6c6f723a207472616e73706172656e743b273e3c2f703e3c2f6469763e3c2f626f64793e3c2f666f726569676e4f626a6563743e3c2f7376673e",
  "linkReferences": {},
  "deployedLinkReferences": {}
}