{
  "_format": "hh-sol-artifact-1",
  "contractName": "LetsAskNftContract",
  "sourceName": "contracts/LetsAskNftContract.sol",
  "abi": [
    {
      "inputs": [],
      "stateMutability": "nonpayable",
      "type": "constructor"
    },
    {
      "anonymous": false,
      "inputs": [
        {
          "indexed": true,
          "internalType": "address",
          "name": "owner",
          "type": "address"
        },
        {
          "indexed": true,
          "internalType": "address",
          "name": "approved",
          "type": "address"
        },
        {
          "indexed": true,
          "internalType": "uint256",
          "name": "tokenId",
          "type": "uint256"
        }
      ],
      "name": "Approval",
      "type": "event"
    },
    {
      "anonymous": false,
      "inputs": [
        {
          "indexed": true,
          "internalType": "address",
          "name": "owner",
          "type": "address"
        },
        {
          "indexed": true,
          "internalType": "address",
          "name": "operator",
          "type": "address"
        },
        {
          "indexed": false,
          "internalType": "bool",
          "name": "approved",
          "type": "bool"
        }
      ],
      "name": "ApprovalForAll",
      "type": "event"
    },
    {
      "anonymous": false,
      "inputs": [
        {
          "indexed": true,
          "internalType": "address",
          "name": "from",
          "type": "address"
        },
        {
          "indexed": true,
          "internalType": "address",
          "name": "to",
          "type": "address"
        },
        {
          "indexed": true,
          "internalType": "uint256",
          "name": "tokenId",
          "type": "uint256"
        }
      ],
      "name": "Transfer",
      "type": "event"
    },
    {
      "inputs": [
        {
          "internalType": "address",
          "name": "to",
          "type": "address"
        },
        {
          "internalType": "uint256",
          "name": "tokenId",
          "type": "uint256"
        }
      ],
      "name": "approve",
      "outputs": [],
      "stateMutability": "nonpayable",
      "type": "function"
    },
    {
      "inputs": [
        {
          "internalType": "address",
          "name": "owner",
          "type": "address"
        }
      ],
      "name": "balanceOf",
      "outputs": [
        {
          "internalType": "uint256",
          "name": "",
          "type": "uint256"
        }
      ],
      "stateMutability": "view",
      "type": "function"
    },
    {
      "inputs": [
        {
          "internalType": "uint256",
          "name": "tokenId",
          "type": "uint256"
        }
      ],
      "name": "getApproved",
      "outputs": [
        {
          "internalType": "address",
          "name": "",
          "type": "address"
        }
      ],
      "stateMutability": "view",
      "type": "function"
    },
    {
      "inputs": [
        {
          "internalType": "address",
          "name": "owner",
          "type": "address"
        },
        {
          "internalType": "address",
          "name": "operator",
          "type": "address"
        }
      ],
      "name": "isApprovedForAll",
      "outputs": [
        {
          "internalType": "bool",
          "name": "",
          "type": "bool"
        }
      ],
      "stateMutability": "view",
      "type": "function"
    },
    {
      "inputs": [
        {
          "internalType": "string",
          "name": "questionTo",
          "type": "string"
        },
        {
          "internalType": "string",
          "name": "question",
          "type": "string"
        },
        {
          "internalType": "uint8",
          "name": "textColor",
          "type": "uint8"
        },
        {
          "internalType": "uint8",
          "name": "bgColor",
          "type": "uint8"
        }
      ],
      "name": "mintLetsAskNft",
      "outputs": [],
      "stateMutability": "nonpayable",
      "type": "function"
    },
    {
      "inputs": [],
      "name": "name",
      "outputs": [
        {
          "internalType": "string",
          "name": "",
          "type": "string"
        }
      ],
      "stateMutability": "view",
      "type": "function"
    },
    {
      "inputs": [
        {
          "internalType": "uint256",
          "name": "tokenId",
          "type": "uint256"
        }
      ],
      "name": "ownerOf",
      "outputs": [
        {
          "internalType": "address",
          "name": "",
          "type": "address"
        }
      ],
      "stateMutability": "view",
      "type": "function"
    },
    {
      "inputs": [
        {
          "internalType": "address",
          "name": "from",
          "type": "address"
        },
        {
          "internalType": "address",
          "name": "to",
          "type": "address"
        },
        {
          "internalType": "uint256",
          "name": "tokenId",
          "type": "uint256"
        }
      ],
      "name": "safeTransferFrom",
      "outputs": [],
      "stateMutability": "nonpayable",
      "type": "function"
    },
    {
      "inputs": [
        {
          "internalType": "address",
          "name": "from",
          "type": "address"
        },
        {
          "internalType": "address",
          "name": "to",
          "type": "address"
        },
        {
          "internalType": "uint256",
          "name": "tokenId",
          "type": "uint256"
        },
        {
          "internalType": "bytes",
          "name": "_data",
          "type": "bytes"
        }
      ],
      "name": "safeTransferFrom",
      "outputs": [],
      "stateMutability": "nonpayable",
      "type": "function"
    },
    {
      "inputs": [
        {
          "internalType": "address",
          "name": "operator",
          "type": "address"
        },
        {
          "internalType": "bool",
          "name": "approved",
          "type": "bool"
        }
      ],
      "name": "setApprovalForAll",
      "outputs": [],
      "stateMutability": "nonpayable",
      "type": "function"
    },
    {
      "inputs": [
        {
          "internalType": "bytes4",
          "name": "interfaceId",
          "type": "bytes4"
        }
      ],
      "name": "supportsInterface",
      "outputs": [
        {
          "internalType": "bool",
          "name": "",
          "type": "bool"
        }
      ],
      "stateMutability": "view",
      "type": "function"
    },
    {
      "inputs": [],
      "name": "symbol",
      "outputs": [
        {
          "internalType": "string",
          "name": "",
          "type": "string"
        }
      ],
      "stateMutability": "view",
      "type": "function"
    },
    {
      "inputs": [
        {
          "internalType": "uint256",
          "name": "tokenId",
          "type": "uint256"
        }
      ],
      "name": "tokenURI",
      "outputs": [
        {
          "internalType": "string",
          "name": "",
          "type": "string"
        }
      ],
      "stateMutability": "view",
      "type": "function"
    },
    {
      "inputs": [
        {
          "internalType": "address",
          "name": "from",
          "type": "address"
        },
        {
          "internalType": "address",
          "name": "to",
          "type": "address"
        },
        {
          "internalType": "uint256",
          "name": "tokenId",
          "type": "uint256"
        }
      ],
      "name": "transferFrom",
      "outputs": [],
      "stateMutability": "nonpayable",
      "type": "function"
    }
  ],
  "bytecode": "0x60806040526040518060c001604052806040518060400160405280600581526020017f626c61636b00000000000000000000000000000000000000000000000000000081525081526020016040518060400160405280600981526020017f74757271756f697365000000000000000000000000000000000000000000000081525081526020016040518060400160405280600381526020017f726564000000000000000000000000000000000000000000000000000000000081525081526020016040518060400160405280600481526020017f626c75650000000000000000000000000000000000000000000000000000000081525081526020016040518060400160405280600581526020017f62726f776e00000000000000000000000000000000000000000000000000000081525081526020016040518060400160405280600581526020017f677265656e00000000000000000000000000000000000000000000000000000081525081525060089060066200018192919062000561565b506040518060c001604052806040518060400160405280600581526020017f776869746500000000000000000000000000000000000000000000000000000081525081526020016040518060400160405280600581526020017f6c696e656e00000000000000000000000000000000000000000000000000000081525081526020016040518060400160405280600581526020017f617a75726500000000000000000000000000000000000000000000000000000081525081526020016040518060400160405280600681526020017f626973717565000000000000000000000000000000000000000000000000000081525081526020016040518060400160405280600681526020017f79656c6c6f77000000000000000000000000000000000000000000000000000081525081526020016040518060400160405280600481526020017f736e6f77000000000000000000000000000000000000000000000000000000008152508152506009906006620002ff92919062000561565b506040518060a0016040528060778152602001620043fe60779139600a908051906020019062000331929190620005c8565b506040518060800160405280605d81526020016200434b605d9139600b908051906020019062000363929190620005c8565b50604051806080016040528060568152602001620043a860569139600c908051906020019062000395929190620005c8565b50348015620003a357600080fd5b506040518060400160405280600781526020017f4c65747341736b000000000000000000000000000000000000000000000000008152506040518060400160405280600281526020017f4c41000000000000000000000000000000000000000000000000000000000000815250816000908051906020019062000428929190620005c8565b50806001908051906020019062000441929190620005c8565b5050506200048f6040518060400160405280601e81526020017f4c65747341736b4e6674436f6e747261637420436f6e7374727563746f7200008152506200049560201b62000e421760201c565b62000813565b6200053581604051602401620004ac919062000727565b6040516020818303038152906040527f41304fac000000000000000000000000000000000000000000000000000000007bffffffffffffffffffffffffffffffffffffffffffffffffffffffff19166020820180517bffffffffffffffffffffffffffffffffffffffffffffffffffffffff83818316178352505050506200053860201b60201c565b50565b60008151905060006a636f6e736f6c652e6c6f679050602083016000808483855afa5050505050565b828054828255906000526020600020908101928215620005b5579160200282015b82811115620005b4578251829080519060200190620005a3929190620005c8565b509160200191906001019062000582565b5b509050620005c4919062000659565b5090565b828054620005d6906200079d565b90600052602060002090601f016020900481019282620005fa576000855562000646565b82601f106200061557805160ff191683800117855562000646565b8280016001018555821562000646579182015b828111156200064557825182559160200191906001019062000628565b5b50905062000655919062000681565b5090565b5b808211156200067d5760008181620006739190620006a0565b506001016200065a565b5090565b5b808211156200069c57600081600090555060010162000682565b5090565b508054620006ae906200079d565b6000825580601f10620006c25750620006e3565b601f016020900490600052602060002090810190620006e2919062000681565b5b50565b6000620006f3826200074b565b620006ff818562000756565b93506200071181856020860162000767565b6200071c8162000802565b840191505092915050565b60006020820190508181036000830152620007438184620006e6565b905092915050565b600081519050919050565b600082825260208201905092915050565b60005b83811015620007875780820151818401526020810190506200076a565b8381111562000797576000848401525b50505050565b60006002820490506001821680620007b657607f821691505b60208210811415620007cd57620007cc620007d3565b5b50919050565b7f4e487b7100000000000000000000000000000000000000000000000000000000600052602260045260246000fd5b6000601f19601f8301169050919050565b613b2880620008236000396000f3fe608060405234801561001057600080fd5b50600436106100ea5760003560e01c806370a082311161008c578063a22cb46511610066578063a22cb4651461025b578063b88d4fde14610277578063c87b56dd14610293578063e985e9c5146102c3576100ea565b806370a08231146101f157806395d89b4114610221578063a1535b481461023f576100ea565b8063095ea7b3116100c8578063095ea7b31461016d57806323b872dd1461018957806342842e0e146101a55780636352211e146101c1576100ea565b806301ffc9a7146100ef57806306fdde031461011f578063081812fc1461013d575b600080fd5b61010960048036038101906101049190612299565b6102f3565b6040516101169190612ae5565b60405180910390f35b6101276103d5565b6040516101349190612b00565b60405180910390f35b6101576004803603810190610152919061237e565b610467565b6040516101649190612a7e565b60405180910390f35b6101876004803603810190610182919061225d565b6104ec565b005b6101a3600480360381019061019e9190612157565b610604565b005b6101bf60048036038101906101ba9190612157565b610664565b005b6101db60048036038101906101d6919061237e565b610684565b6040516101e89190612a7e565b60405180910390f35b61020b600480360381019061020691906120f2565b610736565b6040516102189190612e20565b60405180910390f35b6102296107ee565b6040516102369190612b00565b60405180910390f35b610259600480360381019061025491906122eb565b610880565b005b61027560048036038101906102709190612221565b610be4565b005b610291600480360381019061028c91906121a6565b610bfa565b005b6102ad60048036038101906102a8919061237e565b610c5c565b6040516102ba9190612b00565b60405180910390f35b6102dd60048036038101906102d8919061211b565b610dae565b6040516102ea9190612ae5565b60405180910390f35b60007f80ac58cd000000000000000000000000000000000000000000000000000000007bffffffffffffffffffffffffffffffffffffffffffffffffffffffff1916827bffffffffffffffffffffffffffffffffffffffffffffffffffffffff191614806103be57507f5b5e139f000000000000000000000000000000000000000000000000000000007bffffffffffffffffffffffffffffffffffffffffffffffffffffffff1916827bffffffffffffffffffffffffffffffffffffffffffffffffffffffff1916145b806103ce57506103cd82610edb565b5b9050919050565b6060600080546103e4906130f2565b80601f0160208091040260200160405190810160405280929190818152602001828054610410906130f2565b801561045d5780601f106104325761010080835404028352916020019161045d565b820191906000526020600020905b81548152906001019060200180831161044057829003601f168201915b5050505050905090565b600061047282610f45565b6104b1576040517f08c379a00000000000000000000000000000000000000000000000000000000081526004016104a890612d20565b60405180910390fd5b6004600083815260200190815260200160002060009054906101000a900473ffffffffffffffffffffffffffffffffffffffff169050919050565b60006104f782610684565b90508073ffffffffffffffffffffffffffffffffffffffff168373ffffffffffffffffffffffffffffffffffffffff161415610568576040517f08c379a000000000000000000000000000000000000000000000000000000000815260040161055f90612da0565b60405180910390fd5b8073ffffffffffffffffffffffffffffffffffffffff16610587610fb1565b73ffffffffffffffffffffffffffffffffffffffff1614806105b657506105b5816105b0610fb1565b610dae565b5b6105f5576040517f08c379a00000000000000000000000000000000000000000000000000000000081526004016105ec90612c60565b60405180910390fd5b6105ff8383610fb9565b505050565b61061561060f610fb1565b82611072565b610654576040517f08c379a000000000000000000000000000000000000000000000000000000000815260040161064b90612de0565b60405180910390fd5b61065f838383611150565b505050565b61067f83838360405180602001604052806000815250610bfa565b505050565b6000806002600084815260200190815260200160002060009054906101000a900473ffffffffffffffffffffffffffffffffffffffff169050600073ffffffffffffffffffffffffffffffffffffffff168173ffffffffffffffffffffffffffffffffffffffff16141561072d576040517f08c379a000000000000000000000000000000000000000000000000000000000815260040161072490612ca0565b60405180910390fd5b80915050919050565b60008073ffffffffffffffffffffffffffffffffffffffff168273ffffffffffffffffffffffffffffffffffffffff1614156107a7576040517f08c379a000000000000000000000000000000000000000000000000000000000815260040161079e90612c80565b60405180910390fd5b600360008373ffffffffffffffffffffffffffffffffffffffff1673ffffffffffffffffffffffffffffffffffffffff168152602001908152602001600020549050919050565b6060600180546107fd906130f2565b80601f0160208091040260200160405190810160405280929190818152602001828054610829906130f2565b80156108765780601f1061084b57610100808354040283529160200191610876565b820191906000526020600020905b81548152906001019060200180831161085957829003601f168201915b5050505050905090565b60008351116108c4576040517f08c379a00000000000000000000000000000000000000000000000000000000081526004016108bb90612dc0565b60405180910390fd5b610119835110610909576040517f08c379a000000000000000000000000000000000000000000000000000000000815260040161090090612d80565b60405180910390fd5b600084511161094d576040517f08c379a000000000000000000000000000000000000000000000000000000000815260040161094490612d40565b60405180910390fd5b600b845110610991576040517f08c379a000000000000000000000000000000000000000000000000000000000815260040161098890612c40565b60405180910390fd5b60068260ff16106109d7576040517f08c379a00000000000000000000000000000000000000000000000000000000081526004016109ce90612b60565b60405180910390fd5b60068160ff1610610a1d576040517f08c379a0000000000000000000000000000000000000000000000000000000008152600401610a1490612e00565b60405180910390fd5b6000610a2960076113b7565b90506000600a60098560ff1681548110610a6c577f4e487b7100000000000000000000000000000000000000000000000000000000600052603260045260246000fd5b90600052602060002001600b60088660ff1681548110610ab5577f4e487b7100000000000000000000000000000000000000000000000000000000600052603260045260246000fd5b90600052602060002001600c8a8a604051602001610ad99796959493929190612957565b60405160208183030381529060405290506000610af5836113c5565b87604051602001610b07929190612a44565b60405160208183030381529060405290506000610b4c82610b2785611572565b604051602001610b389291906129dd565b604051602081830303815290604052611572565b9050600081604051602001610b619190612a22565b6040516020818303038152906040529050610b7b81610e42565b610b853386611711565b610b8f858261172f565b610b9960076117a3565b610bd96040518060400160405280601281526020017f4c65747341736b204e4654206d696e746564000000000000000000000000000081525086336117b9565b505050505050505050565b610bf6610bef610fb1565b8383611858565b5050565b610c0b610c05610fb1565b83611072565b610c4a576040517f08c379a0000000000000000000000000000000000000000000000000000000008152600401610c4190612de0565b60405180910390fd5b610c56848484846119c5565b50505050565b6060610c6782610f45565b610ca6576040517f08c379a0000000000000000000000000000000000000000000000000000000008152600401610c9d90612d00565b60405180910390fd5b6000600660008481526020019081526020016000208054610cc6906130f2565b80601f0160208091040260200160405190810160405280929190818152602001828054610cf2906130f2565b8015610d3f5780601f10610d1457610100808354040283529160200191610d3f565b820191906000526020600020905b815481529060010190602001808311610d2257829003601f168201915b505050505090506000610d50611a21565b9050600081511415610d66578192505050610da9565b600082511115610d9b578082604051602001610d83929190612933565b60405160208183030381529060405292505050610da9565b610da484611a38565b925050505b919050565b6000600560008473ffffffffffffffffffffffffffffffffffffffff1673ffffffffffffffffffffffffffffffffffffffff16815260200190815260200160002060008373ffffffffffffffffffffffffffffffffffffffff1673ffffffffffffffffffffffffffffffffffffffff16815260200190815260200160002060009054906101000a900460ff16905092915050565b610ed881604051602401610e569190612b00565b6040516020818303038152906040527f41304fac000000000000000000000000000000000000000000000000000000007bffffffffffffffffffffffffffffffffffffffffffffffffffffffff19166020820180517bffffffffffffffffffffffffffffffffffffffffffffffffffffffff8381831617835250505050611adf565b50565b60007f01ffc9a7000000000000000000000000000000000000000000000000000000007bffffffffffffffffffffffffffffffffffffffffffffffffffffffff1916827bffffffffffffffffffffffffffffffffffffffffffffffffffffffff1916149050919050565b60008073ffffffffffffffffffffffffffffffffffffffff166002600084815260200190815260200160002060009054906101000a900473ffffffffffffffffffffffffffffffffffffffff1673ffffffffffffffffffffffffffffffffffffffff1614159050919050565b600033905090565b816004600083815260200190815260200160002060006101000a81548173ffffffffffffffffffffffffffffffffffffffff021916908373ffffffffffffffffffffffffffffffffffffffff160217905550808273ffffffffffffffffffffffffffffffffffffffff1661102c83610684565b73ffffffffffffffffffffffffffffffffffffffff167f8c5be1e5ebec7d5bd14f71427d1e84f3dd0314c0f7b2291e5b200ac8c7c3b92560405160405180910390a45050565b600061107d82610f45565b6110bc576040517f08c379a00000000000000000000000000000000000000000000000000000000081526004016110b390612c20565b60405180910390fd5b60006110c783610684565b90508073ffffffffffffffffffffffffffffffffffffffff168473ffffffffffffffffffffffffffffffffffffffff16148061113657508373ffffffffffffffffffffffffffffffffffffffff1661111e84610467565b73ffffffffffffffffffffffffffffffffffffffff16145b8061114757506111468185610dae565b5b91505092915050565b8273ffffffffffffffffffffffffffffffffffffffff1661117082610684565b73ffffffffffffffffffffffffffffffffffffffff16146111c6576040517f08c379a00000000000000000000000000000000000000000000000000000000081526004016111bd90612ba0565b60405180910390fd5b600073ffffffffffffffffffffffffffffffffffffffff168273ffffffffffffffffffffffffffffffffffffffff161415611236576040517f08c379a000000000000000000000000000000000000000000000000000000000815260040161122d90612be0565b60405180910390fd5b611241838383611b08565b61124c600082610fb9565b6001600360008573ffffffffffffffffffffffffffffffffffffffff1673ffffffffffffffffffffffffffffffffffffffff168152602001908152602001600020600082825461129c9190612ffb565b925050819055506001600360008473ffffffffffffffffffffffffffffffffffffffff1673ffffffffffffffffffffffffffffffffffffffff16815260200190815260200160002060008282546112f39190612f1a565b92505081905550816002600083815260200190815260200160002060006101000a81548173ffffffffffffffffffffffffffffffffffffffff021916908373ffffffffffffffffffffffffffffffffffffffff160217905550808273ffffffffffffffffffffffffffffffffffffffff168473ffffffffffffffffffffffffffffffffffffffff167fddf252ad1be2c89b69c2b068fc378daa952ba7f163c4a11628f55a4df523b3ef60405160405180910390a46113b2838383611b0d565b505050565b600081600001549050919050565b6060600082141561140d576040518060400160405280600181526020017f3000000000000000000000000000000000000000000000000000000000000000815250905061156d565b600082905060005b6000821461143f57808061142890613155565b915050600a826114389190612f70565b9150611415565b60008167ffffffffffffffff811115611481577f4e487b7100000000000000000000000000000000000000000000000000000000600052604160045260246000fd5b6040519080825280601f01601f1916602001820160405280156114b35781602001600182028036833780820191505090505b5090505b60008514611566576001826114cc9190612ffb565b9150600a856114db919061319e565b60306114e79190612f1a565b60f81b818381518110611523577f4e487b7100000000000000000000000000000000000000000000000000000000600052603260045260246000fd5b60200101907effffffffffffffffffffffffffffffffffffffffffffffffffffffffffffff1916908160001a905350600a8561155f9190612f70565b94506114b7565b8093505050505b919050565b60606000825114156115955760405180602001604052806000815250905061170c565b6000604051806060016040528060408152602001613ab360409139905060006003600285516115c49190612f1a565b6115ce9190612f70565b60046115da9190612fa1565b905060006020826115eb9190612f1a565b67ffffffffffffffff81111561162a577f4e487b7100000000000000000000000000000000000000000000000000000000600052604160045260246000fd5b6040519080825280601f01601f19166020018201604052801561165c5781602001600182028036833780820191505090505b509050818152600183018586518101602084015b818310156116cb576003830192508251603f8160121c168501518253600182019150603f81600c1c168501518253600182019150603f8160061c168501518253600182019150603f8116850151825360018201915050611670565b6003895106600181146116e557600281146116f557611700565b613d3d60f01b6002830352611700565b603d60f81b60018303525b50505050508093505050505b919050565b61172b828260405180602001604052806000815250611b12565b5050565b61173882610f45565b611777576040517f08c379a000000000000000000000000000000000000000000000000000000000815260040161176e90612cc0565b60405180910390fd5b8060066000848152602001908152602001600020908051906020019061179e929190611f01565b505050565b6001816000016000828254019250508190555050565b6118538383836040516024016117d193929190612b22565b6040516020818303038152906040527fe3849f79000000000000000000000000000000000000000000000000000000007bffffffffffffffffffffffffffffffffffffffffffffffffffffffff19166020820180517bffffffffffffffffffffffffffffffffffffffffffffffffffffffff8381831617835250505050611adf565b505050565b8173ffffffffffffffffffffffffffffffffffffffff168373ffffffffffffffffffffffffffffffffffffffff1614156118c7576040517f08c379a00000000000000000000000000000000000000000000000000000000081526004016118be90612c00565b60405180910390fd5b80600560008573ffffffffffffffffffffffffffffffffffffffff1673ffffffffffffffffffffffffffffffffffffffff16815260200190815260200160002060008473ffffffffffffffffffffffffffffffffffffffff1673ffffffffffffffffffffffffffffffffffffffff16815260200190815260200160002060006101000a81548160ff0219169083151502179055508173ffffffffffffffffffffffffffffffffffffffff168373ffffffffffffffffffffffffffffffffffffffff167f17307eab39ab6107e8899845ad3d59bd9653f200f220920489ca2b5937696c31836040516119b89190612ae5565b60405180910390a3505050565b6119d0848484611150565b6119dc84848484611b6d565b611a1b576040517f08c379a0000000000000000000000000000000000000000000000000000000008152600401611a1290612b80565b60405180910390fd5b50505050565b606060405180602001604052806000815250905090565b6060611a4382610f45565b611a82576040517f08c379a0000000000000000000000000000000000000000000000000000000008152600401611a7990612d60565b60405180910390fd5b6000611a8c611a21565b90506000815111611aac5760405180602001604052806000815250611ad7565b80611ab6846113c5565b604051602001611ac7929190612933565b6040516020818303038152906040525b915050919050565b60008151905060006a636f6e736f6c652e6c6f679050602083016000808483855afa5050505050565b505050565b505050565b611b1c8383611d04565b611b296000848484611b6d565b611b68576040517f08c379a0000000000000000000000000000000000000000000000000000000008152600401611b5f90612b80565b60405180910390fd5b505050565b6000611b8e8473ffffffffffffffffffffffffffffffffffffffff16611ede565b15611cf7578373ffffffffffffffffffffffffffffffffffffffff1663150b7a02611bb7610fb1565b8786866040518563ffffffff1660e01b8152600401611bd99493929190612a99565b602060405180830381600087803b158015611bf357600080fd5b505af1925050508015611c2457506040513d601f19601f82011682018060405250810190611c2191906122c2565b60015b611ca7573d8060008114611c54576040519150601f19603f3d011682016040523d82523d6000602084013e611c59565b606091505b50600081511415611c9f576040517f08c379a0000000000000000000000000000000000000000000000000000000008152600401611c9690612b80565b60405180910390fd5b805181602001fd5b63150b7a0260e01b7bffffffffffffffffffffffffffffffffffffffffffffffffffffffff1916817bffffffffffffffffffffffffffffffffffffffffffffffffffffffff191614915050611cfc565b600190505b949350505050565b600073ffffffffffffffffffffffffffffffffffffffff168273ffffffffffffffffffffffffffffffffffffffff161415611d74576040517f08c379a0000000000000000000000000000000000000000000000000000000008152600401611d6b90612ce0565b60405180910390fd5b611d7d81610f45565b15611dbd576040517f08c379a0000000000000000000000000000000000000000000000000000000008152600401611db490612bc0565b60405180910390fd5b611dc960008383611b08565b6001600360008473ffffffffffffffffffffffffffffffffffffffff1673ffffffffffffffffffffffffffffffffffffffff1681526020019081526020016000206000828254611e199190612f1a565b92505081905550816002600083815260200190815260200160002060006101000a81548173ffffffffffffffffffffffffffffffffffffffff021916908373ffffffffffffffffffffffffffffffffffffffff160217905550808273ffffffffffffffffffffffffffffffffffffffff16600073ffffffffffffffffffffffffffffffffffffffff167fddf252ad1be2c89b69c2b068fc378daa952ba7f163c4a11628f55a4df523b3ef60405160405180910390a4611eda60008383611b0d565b5050565b6000808273ffffffffffffffffffffffffffffffffffffffff163b119050919050565b828054611f0d906130f2565b90600052602060002090601f016020900481019282611f2f5760008555611f76565b82601f10611f4857805160ff1916838001178555611f76565b82800160010185558215611f76579182015b82811115611f75578251825591602001919060010190611f5a565b5b509050611f839190611f87565b5090565b5b80821115611fa0576000816000905550600101611f88565b5090565b6000611fb7611fb284612e60565b612e3b565b905082815260208101848484011115611fcf57600080fd5b611fda8482856130b0565b509392505050565b6000611ff5611ff084612e91565b612e3b565b90508281526020810184848401111561200d57600080fd5b6120188482856130b0565b509392505050565b60008135905061202f81613a3f565b92915050565b60008135905061204481613a56565b92915050565b60008135905061205981613a6d565b92915050565b60008151905061206e81613a6d565b92915050565b600082601f83011261208557600080fd5b8135612095848260208601611fa4565b91505092915050565b600082601f8301126120af57600080fd5b81356120bf848260208601611fe2565b91505092915050565b6000813590506120d781613a84565b92915050565b6000813590506120ec81613a9b565b92915050565b60006020828403121561210457600080fd5b600061211284828501612020565b91505092915050565b6000806040838503121561212e57600080fd5b600061213c85828601612020565b925050602061214d85828601612020565b9150509250929050565b60008060006060848603121561216c57600080fd5b600061217a86828701612020565b935050602061218b86828701612020565b925050604061219c868287016120c8565b9150509250925092565b600080600080608085870312156121bc57600080fd5b60006121ca87828801612020565b94505060206121db87828801612020565b93505060406121ec878288016120c8565b925050606085013567ffffffffffffffff81111561220957600080fd5b61221587828801612074565b91505092959194509250565b6000806040838503121561223457600080fd5b600061224285828601612020565b925050602061225385828601612035565b9150509250929050565b6000806040838503121561227057600080fd5b600061227e85828601612020565b925050602061228f858286016120c8565b9150509250929050565b6000602082840312156122ab57600080fd5b60006122b98482850161204a565b91505092915050565b6000602082840312156122d457600080fd5b60006122e28482850161205f565b91505092915050565b6000806000806080858703121561230157600080fd5b600085013567ffffffffffffffff81111561231b57600080fd5b6123278782880161209e565b945050602085013567ffffffffffffffff81111561234457600080fd5b6123508782880161209e565b9350506040612361878288016120dd565b9250506060612372878288016120dd565b91505092959194509250565b60006020828403121561239057600080fd5b600061239e848285016120c8565b91505092915050565b6123b08161302f565b82525050565b6123bf81613041565b82525050565b60006123d082612ed7565b6123da8185612eed565b93506123ea8185602086016130bf565b6123f38161328b565b840191505092915050565b600061240982612ee2565b6124138185612efe565b93506124238185602086016130bf565b61242c8161328b565b840191505092915050565b600061244282612ee2565b61244c8185612f0f565b935061245c8185602086016130bf565b80840191505092915050565b60008154612475816130f2565b61247f8186612f0f565b9450600182166000811461249a57600181146124ab576124de565b60ff198316865281860193506124de565b6124b485612ec2565b60005b838110156124d6578154818901526001820191506020810190506124b7565b838801955050505b50505092915050565b60006124f4602d83612efe565b91506124ff8261329c565b604082019050919050565b6000612517603283612efe565b9150612522826132eb565b604082019050919050565b600061253a602583612efe565b91506125458261333a565b604082019050919050565b600061255d601c83612efe565b915061256882613389565b602082019050919050565b6000612580600183612f0f565b915061258b826133b2565b600182019050919050565b60006125a3602483612efe565b91506125ae826133db565b604082019050919050565b60006125c6601983612efe565b91506125d18261342a565b602082019050919050565b60006125e9602c83612efe565b91506125f482613453565b604082019050919050565b600061260c600683612f0f565b9150612617826134a2565b600682019050919050565b600061262f600d83612f0f565b915061263a826134cb565b600d82019050919050565b6000612652602983612efe565b915061265d826134f4565b604082019050919050565b6000612675603883612efe565b915061268082613543565b604082019050919050565b6000612698602a83612efe565b91506126a382613592565b604082019050919050565b60006126bb602983612efe565b91506126c6826135e1565b604082019050919050565b60006126de602e83612efe565b91506126e982613630565b604082019050919050565b6000612701600283612f0f565b915061270c8261367f565b600282019050919050565b6000612724602083612efe565b915061272f826136a8565b602082019050919050565b6000612747603183612efe565b9150612752826136d1565b604082019050919050565b600061276a602c83612efe565b915061277582613720565b604082019050919050565b600061278d600e83612efe565b91506127988261376f565b602082019050919050565b60006127b0600383612f0f565b91506127bb82613798565b600382019050919050565b60006127d3602f83612efe565b91506127de826137c1565b604082019050919050565b60006127f6600a83612f0f565b915061280182613810565b600a82019050919050565b6000612819601e83612efe565b915061282482613839565b602082019050919050565b600061283c605c83612f0f565b915061284782613862565b605c82019050919050565b600061285f602183612efe565b915061286a826138d7565b604082019050919050565b6000612882601d83612f0f565b915061288d82613926565b601d82019050919050565b60006128a5601683612efe565b91506128b08261394f565b602082019050919050565b60006128c8603183612efe565b91506128d382613978565b604082019050919050565b60006128eb600283612f0f565b91506128f6826139c7565b600282019050919050565b600061290e602a83612efe565b9150612919826139f0565b604082019050919050565b61292d81613099565b82525050565b600061293f8285612437565b915061294b8284612437565b91508190509392505050565b6000612963828a612468565b915061296f8289612468565b915061297b8288612468565b91506129878287612468565b91506129938286612468565b915061299e826125ff565b91506129aa8285612437565b91506129b582612573565b91506129c18284612437565b91506129cc82612622565b915081905098975050505050505050565b60006129e8826127e9565b91506129f48285612437565b91506129ff8261282f565b9150612a0b8284612437565b9150612a16826126f4565b91508190509392505050565b6000612a2d82612875565b9150612a398284612437565b915081905092915050565b6000612a4f826128de565b9150612a5b8285612437565b9150612a66826127a3565b9150612a728284612437565b91508190509392505050565b6000602082019050612a9360008301846123a7565b92915050565b6000608082019050612aae60008301876123a7565b612abb60208301866123a7565b612ac86040830185612924565b8181036060830152612ada81846123c5565b905095945050505050565b6000602082019050612afa60008301846123b6565b92915050565b60006020820190508181036000830152612b1a81846123fe565b905092915050565b60006060820190508181036000830152612b3c81866123fe565b9050612b4b6020830185612924565b612b5860408301846123a7565b949350505050565b60006020820190508181036000830152612b79816124e7565b9050919050565b60006020820190508181036000830152612b998161250a565b9050919050565b60006020820190508181036000830152612bb98161252d565b9050919050565b60006020820190508181036000830152612bd981612550565b9050919050565b60006020820190508181036000830152612bf981612596565b9050919050565b60006020820190508181036000830152612c19816125b9565b9050919050565b60006020820190508181036000830152612c39816125dc565b9050919050565b60006020820190508181036000830152612c5981612645565b9050919050565b60006020820190508181036000830152612c7981612668565b9050919050565b60006020820190508181036000830152612c998161268b565b9050919050565b60006020820190508181036000830152612cb9816126ae565b9050919050565b60006020820190508181036000830152612cd9816126d1565b9050919050565b60006020820190508181036000830152612cf981612717565b9050919050565b60006020820190508181036000830152612d198161273a565b9050919050565b60006020820190508181036000830152612d398161275d565b9050919050565b60006020820190508181036000830152612d5981612780565b9050919050565b60006020820190508181036000830152612d79816127c6565b9050919050565b60006020820190508181036000830152612d998161280c565b9050919050565b60006020820190508181036000830152612db981612852565b9050919050565b60006020820190508181036000830152612dd981612898565b9050919050565b60006020820190508181036000830152612df9816128bb565b9050919050565b60006020820190508181036000830152612e1981612901565b9050919050565b6000602082019050612e356000830184612924565b92915050565b6000612e45612e56565b9050612e518282613124565b919050565b6000604051905090565b600067ffffffffffffffff821115612e7b57612e7a61325c565b5b612e848261328b565b9050602081019050919050565b600067ffffffffffffffff821115612eac57612eab61325c565b5b612eb58261328b565b9050602081019050919050565b60008190508160005260206000209050919050565b600081519050919050565b600081519050919050565b600082825260208201905092915050565b600082825260208201905092915050565b600081905092915050565b6000612f2582613099565b9150612f3083613099565b9250827fffffffffffffffffffffffffffffffffffffffffffffffffffffffffffffffff03821115612f6557612f646131cf565b5b828201905092915050565b6000612f7b82613099565b9150612f8683613099565b925082612f9657612f956131fe565b5b828204905092915050565b6000612fac82613099565b9150612fb783613099565b9250817fffffffffffffffffffffffffffffffffffffffffffffffffffffffffffffffff0483118215151615612ff057612fef6131cf565b5b828202905092915050565b600061300682613099565b915061301183613099565b925082821015613024576130236131cf565b5b828203905092915050565b600061303a82613079565b9050919050565b60008115159050919050565b60007fffffffff0000000000000000000000000000000000000000000000000000000082169050919050565b600073ffffffffffffffffffffffffffffffffffffffff82169050919050565b6000819050919050565b600060ff82169050919050565b82818337600083830152505050565b60005b838110156130dd5780820151818401526020810190506130c2565b838111156130ec576000848401525b50505050565b6000600282049050600182168061310a57607f821691505b6020821081141561311e5761311d61322d565b5b50919050565b61312d8261328b565b810181811067ffffffffffffffff8211171561314c5761314b61325c565b5b80604052505050565b600061316082613099565b91507fffffffffffffffffffffffffffffffffffffffffffffffffffffffffffffffff821415613193576131926131cf565b5b600182019050919050565b60006131a982613099565b91506131b483613099565b9250826131c4576131c36131fe565b5b828206905092915050565b7f4e487b7100000000000000000000000000000000000000000000000000000000600052601160045260246000fd5b7f4e487b7100000000000000000000000000000000000000000000000000000000600052601260045260246000fd5b7f4e487b7100000000000000000000000000000000000000000000000000000000600052602260045260246000fd5b7f4e487b7100000000000000000000000000000000000000000000000000000000600052604160045260246000fd5b6000601f19601f8301169050919050565b7f57726f6e67207465787420636f6c6f722076616c75652e2053686f756c64206260008201527f65206c657373207468616e203600000000000000000000000000000000000000602082015250565b7f4552433732313a207472616e7366657220746f206e6f6e20455243373231526560008201527f63656976657220696d706c656d656e7465720000000000000000000000000000602082015250565b7f4552433732313a207472616e736665722066726f6d20696e636f72726563742060008201527f6f776e6572000000000000000000000000000000000000000000000000000000602082015250565b7f4552433732313a20746f6b656e20616c7265616479206d696e74656400000000600082015250565b7f2c00000000000000000000000000000000000000000000000000000000000000600082015250565b7f4552433732313a207472616e7366657220746f20746865207a65726f2061646460008201527f7265737300000000000000000000000000000000000000000000000000000000602082015250565b7f4552433732313a20617070726f766520746f2063616c6c657200000000000000600082015250565b7f4552433732313a206f70657261746f7220717565727920666f72206e6f6e657860008201527f697374656e7420746f6b656e0000000000000000000000000000000000000000602082015250565b7f48656c6c6f200000000000000000000000000000000000000000000000000000600082015250565b7f3c2f746578743e3c2f7376673e00000000000000000000000000000000000000600082015250565b7f4d6f7265207468616e20313020636861726163746572206c656e677468206f6660008201527f20746f206669656c640000000000000000000000000000000000000000000000602082015250565b7f4552433732313a20617070726f76652063616c6c6572206973206e6f74206f7760008201527f6e6572206e6f7220617070726f76656420666f7220616c6c0000000000000000602082015250565b7f4552433732313a2062616c616e636520717565727920666f7220746865207a6560008201527f726f206164647265737300000000000000000000000000000000000000000000602082015250565b7f4552433732313a206f776e657220717565727920666f72206e6f6e657869737460008201527f656e7420746f6b656e0000000000000000000000000000000000000000000000602082015250565b7f45524337323155524953746f726167653a2055524920736574206f66206e6f6e60008201527f6578697374656e7420746f6b656e000000000000000000000000000000000000602082015250565b7f227d000000000000000000000000000000000000000000000000000000000000600082015250565b7f4552433732313a206d696e7420746f20746865207a65726f2061646472657373600082015250565b7f45524337323155524953746f726167653a2055524920717565727920666f722060008201527f6e6f6e6578697374656e7420746f6b656e000000000000000000000000000000602082015250565b7f4552433732313a20617070726f76656420717565727920666f72206e6f6e657860008201527f697374656e7420746f6b656e0000000000000000000000000000000000000000602082015250565b7f456d70747920546f204669656c64000000000000000000000000000000000000600082015250565b7f202d200000000000000000000000000000000000000000000000000000000000600082015250565b7f4552433732314d657461646174613a2055524920717565727920666f72206e6f60008201527f6e6578697374656e7420746f6b656e0000000000000000000000000000000000602082015250565b7f7b226e616d65223a202200000000000000000000000000000000000000000000600082015250565b7f4d6f7265207468616e2032383020636861726163746572206c656e6774680000600082015250565b7f222c20226465736372697074696f6e223a20224c6574732041736b202d20517560008201527f657374696f6e20746865207374617475732051756f222c2022696d616765223a60208201527f2022646174613a696d6167652f7376672b786d6c3b6261736536342c00000000604082015250565b7f4552433732313a20617070726f76616c20746f2063757272656e74206f776e6560008201527f7200000000000000000000000000000000000000000000000000000000000000602082015250565b7f646174613a6170706c69636174696f6e2f6a736f6e3b6261736536342c000000600082015250565b7f456d707479207175657374696f6e20746f206d696e7400000000000000000000600082015250565b7f4552433732313a207472616e736665722063616c6c6572206973206e6f74206f60008201527f776e6572206e6f7220617070726f766564000000000000000000000000000000602082015250565b7f5123000000000000000000000000000000000000000000000000000000000000600082015250565b7f57726f6e67206267436f6c6f722076616c75652e2053686f756c64206265206c60008201527f657373207468616e203600000000000000000000000000000000000000000000602082015250565b613a488161302f565b8114613a5357600080fd5b50565b613a5f81613041565b8114613a6a57600080fd5b50565b613a768161304d565b8114613a8157600080fd5b50565b613a8d81613099565b8114613a9857600080fd5b50565b613aa4816130a3565b8114613aaf57600080fd5b5056fe4142434445464748494a4b4c4d4e4f505152535455565758595a6162636465666768696a6b6c6d6e6f707172737475767778797a303132333435363738392b2fa2646970667358221220270ee741ef1ab6a0041d6c863e91aed88c3e031358016161c4c046fd9c487d6e64736f6c634300080400333b20666f6e742d66616d696c793a20636f7572696572206e65773b20666f6e742d73697a653a20323470783b207d3c2f7374796c653e3c726563742077696474683d273130302527206865696768743d2731303025272066696c6c3d27272f3e3c7465787420783d273530252720793d273530252720636c6173733d27626173652720646f6d696e616e742d626173656c696e653d276d6964646c652720746578742d616e63686f723d276d6964646c65273e3c73766720786d6c6e733d27687474703a2f2f7777772e77332e6f72672f323030302f73766727207072657365727665417370656374526174696f3d27784d696e594d696e206d656574272076696577426f783d273020302033353020333530273e3c7374796c653e2e62617365207b2066696c6c3a20",
  "linkReferences": {},
  "deployedLinkReferences": {}
}