{
  "_format": "hh-sol-artifact-1",
  "contractName": "LetsAskNftContract",
  "sourceName": "contracts/LetsAskNftContract.sol",
  "abi": [
    {
      "inputs": [],
      "stateMutability": "nonpayable",
      "type": "constructor"
    },
    {
      "anonymous": false,
      "inputs": [
        {
          "indexed": true,
          "internalType": "address",
          "name": "owner",
          "type": "address"
        },
        {
          "indexed": true,
          "internalType": "address",
          "name": "approved",
          "type": "address"
        },
        {
          "indexed": true,
          "internalType": "uint256",
          "name": "tokenId",
          "type": "uint256"
        }
      ],
      "name": "Approval",
      "type": "event"
    },
    {
      "anonymous": false,
      "inputs": [
        {
          "indexed": true,
          "internalType": "address",
          "name": "owner",
          "type": "address"
        },
        {
          "indexed": true,
          "internalType": "address",
          "name": "operator",
          "type": "address"
        },
        {
          "indexed": false,
          "internalType": "bool",
          "name": "approved",
          "type": "bool"
        }
      ],
      "name": "ApprovalForAll",
      "type": "event"
    },
    {
      "anonymous": false,
      "inputs": [
        {
          "indexed": false,
          "internalType": "address",
          "name": "sender",
          "type": "address"
        },
        {
          "indexed": false,
          "internalType": "uint256",
          "name": "tokenId",
          "type": "uint256"
        }
      ],
      "name": "LetsAskNftMinted",
      "type": "event"
    },
    {
      "anonymous": false,
      "inputs": [
        {
          "indexed": true,
          "internalType": "address",
          "name": "from",
          "type": "address"
        },
        {
          "indexed": true,
          "internalType": "address",
          "name": "to",
          "type": "address"
        },
        {
          "indexed": true,
          "internalType": "uint256",
          "name": "tokenId",
          "type": "uint256"
        }
      ],
      "name": "Transfer",
      "type": "event"
    },
    {
      "inputs": [
        {
          "internalType": "address",
          "name": "to",
          "type": "address"
        },
        {
          "internalType": "uint256",
          "name": "tokenId",
          "type": "uint256"
        }
      ],
      "name": "approve",
      "outputs": [],
      "stateMutability": "nonpayable",
      "type": "function"
    },
    {
      "inputs": [
        {
          "internalType": "address",
          "name": "owner",
          "type": "address"
        }
      ],
      "name": "balanceOf",
      "outputs": [
        {
          "internalType": "uint256",
          "name": "",
          "type": "uint256"
        }
      ],
      "stateMutability": "view",
      "type": "function"
    },
    {
      "inputs": [
        {
          "internalType": "uint256",
          "name": "tokenId",
          "type": "uint256"
        }
      ],
      "name": "getApproved",
      "outputs": [
        {
          "internalType": "address",
          "name": "",
          "type": "address"
        }
      ],
      "stateMutability": "view",
      "type": "function"
    },
    {
      "inputs": [
        {
          "internalType": "address",
          "name": "owner",
          "type": "address"
        },
        {
          "internalType": "address",
          "name": "operator",
          "type": "address"
        }
      ],
      "name": "isApprovedForAll",
      "outputs": [
        {
          "internalType": "bool",
          "name": "",
          "type": "bool"
        }
      ],
      "stateMutability": "view",
      "type": "function"
    },
    {
      "inputs": [
        {
          "internalType": "string",
          "name": "questionTo",
          "type": "string"
        },
        {
          "internalType": "string",
          "name": "question",
          "type": "string"
        },
        {
          "internalType": "uint8",
          "name": "textColor",
          "type": "uint8"
        },
        {
          "internalType": "uint8",
          "name": "bgColor",
          "type": "uint8"
        }
      ],
      "name": "mintLetsAskNft",
      "outputs": [],
      "stateMutability": "nonpayable",
      "type": "function"
    },
    {
      "inputs": [],
      "name": "name",
      "outputs": [
        {
          "internalType": "string",
          "name": "",
          "type": "string"
        }
      ],
      "stateMutability": "view",
      "type": "function"
    },
    {
      "inputs": [
        {
          "internalType": "uint256",
          "name": "tokenId",
          "type": "uint256"
        }
      ],
      "name": "ownerOf",
      "outputs": [
        {
          "internalType": "address",
          "name": "",
          "type": "address"
        }
      ],
      "stateMutability": "view",
      "type": "function"
    },
    {
      "inputs": [
        {
          "internalType": "address",
          "name": "from",
          "type": "address"
        },
        {
          "internalType": "address",
          "name": "to",
          "type": "address"
        },
        {
          "internalType": "uint256",
          "name": "tokenId",
          "type": "uint256"
        }
      ],
      "name": "safeTransferFrom",
      "outputs": [],
      "stateMutability": "nonpayable",
      "type": "function"
    },
    {
      "inputs": [
        {
          "internalType": "address",
          "name": "from",
          "type": "address"
        },
        {
          "internalType": "address",
          "name": "to",
          "type": "address"
        },
        {
          "internalType": "uint256",
          "name": "tokenId",
          "type": "uint256"
        },
        {
          "internalType": "bytes",
          "name": "_data",
          "type": "bytes"
        }
      ],
      "name": "safeTransferFrom",
      "outputs": [],
      "stateMutability": "nonpayable",
      "type": "function"
    },
    {
      "inputs": [
        {
          "internalType": "address",
          "name": "operator",
          "type": "address"
        },
        {
          "internalType": "bool",
          "name": "approved",
          "type": "bool"
        }
      ],
      "name": "setApprovalForAll",
      "outputs": [],
      "stateMutability": "nonpayable",
      "type": "function"
    },
    {
      "inputs": [
        {
          "internalType": "bytes4",
          "name": "interfaceId",
          "type": "bytes4"
        }
      ],
      "name": "supportsInterface",
      "outputs": [
        {
          "internalType": "bool",
          "name": "",
          "type": "bool"
        }
      ],
      "stateMutability": "view",
      "type": "function"
    },
    {
      "inputs": [],
      "name": "symbol",
      "outputs": [
        {
          "internalType": "string",
          "name": "",
          "type": "string"
        }
      ],
      "stateMutability": "view",
      "type": "function"
    },
    {
      "inputs": [
        {
          "internalType": "uint256",
          "name": "tokenId",
          "type": "uint256"
        }
      ],
      "name": "tokenURI",
      "outputs": [
        {
          "internalType": "string",
          "name": "",
          "type": "string"
        }
      ],
      "stateMutability": "view",
      "type": "function"
    },
    {
      "inputs": [
        {
          "internalType": "address",
          "name": "from",
          "type": "address"
        },
        {
          "internalType": "address",
          "name": "to",
          "type": "address"
        },
        {
          "internalType": "uint256",
          "name": "tokenId",
          "type": "uint256"
        }
      ],
      "name": "transferFrom",
      "outputs": [],
      "stateMutability": "nonpayable",
      "type": "function"
    }
  ],
  "bytecode": "0x60806040526040518060c001604052806040518060400160405280600581526020017f626c61636b00000000000000000000000000000000000000000000000000000081525081526020016040518060400160405280600981526020017f74757271756f697365000000000000000000000000000000000000000000000081525081526020016040518060400160405280600381526020017f726564000000000000000000000000000000000000000000000000000000000081525081526020016040518060400160405280600481526020017f626c75650000000000000000000000000000000000000000000000000000000081525081526020016040518060400160405280600581526020017f62726f776e00000000000000000000000000000000000000000000000000000081525081526020016040518060400160405280600581526020017f677265656e00000000000000000000000000000000000000000000000000000081525081525060089060066200018192919062000561565b506040518060c001604052806040518060400160405280600581526020017f776869746500000000000000000000000000000000000000000000000000000081525081526020016040518060400160405280600581526020017f6c696e656e00000000000000000000000000000000000000000000000000000081525081526020016040518060400160405280600581526020017f617a75726500000000000000000000000000000000000000000000000000000081525081526020016040518060400160405280600681526020017f626973717565000000000000000000000000000000000000000000000000000081525081526020016040518060400160405280600681526020017f79656c6c6f77000000000000000000000000000000000000000000000000000081525081526020016040518060400160405280600481526020017f736e6f77000000000000000000000000000000000000000000000000000000008152508152506009906006620002ff92919062000561565b506040518060a00160405280607781526020016200446060779139600a908051906020019062000331929190620005c8565b506040518060800160405280605d8152602001620043ad605d9139600b908051906020019062000363929190620005c8565b506040518060800160405280605681526020016200440a60569139600c908051906020019062000395929190620005c8565b50348015620003a357600080fd5b506040518060400160405280600781526020017f4c65747341736b000000000000000000000000000000000000000000000000008152506040518060400160405280600281526020017f4c41000000000000000000000000000000000000000000000000000000000000815250816000908051906020019062000428929190620005c8565b50806001908051906020019062000441929190620005c8565b5050506200048f6040518060400160405280601e81526020017f4c65747341736b4e6674436f6e747261637420436f6e7374727563746f7200008152506200049560201b62000e7b1760201c565b62000813565b6200053581604051602401620004ac919062000727565b6040516020818303038152906040527f41304fac000000000000000000000000000000000000000000000000000000007bffffffffffffffffffffffffffffffffffffffffffffffffffffffff19166020820180517bffffffffffffffffffffffffffffffffffffffffffffffffffffffff83818316178352505050506200053860201b60201c565b50565b60008151905060006a636f6e736f6c652e6c6f679050602083016000808483855afa5050505050565b828054828255906000526020600020908101928215620005b5579160200282015b82811115620005b4578251829080519060200190620005a3929190620005c8565b509160200191906001019062000582565b5b509050620005c4919062000659565b5090565b828054620005d6906200079d565b90600052602060002090601f016020900481019282620005fa576000855562000646565b82601f106200061557805160ff191683800117855562000646565b8280016001018555821562000646579182015b828111156200064557825182559160200191906001019062000628565b5b50905062000655919062000681565b5090565b5b808211156200067d5760008181620006739190620006a0565b506001016200065a565b5090565b5b808211156200069c57600081600090555060010162000682565b5090565b508054620006ae906200079d565b6000825580601f10620006c25750620006e3565b601f016020900490600052602060002090810190620006e2919062000681565b5b50565b6000620006f3826200074b565b620006ff818562000756565b93506200071181856020860162000767565b6200071c8162000802565b840191505092915050565b60006020820190508181036000830152620007438184620006e6565b905092915050565b600081519050919050565b600082825260208201905092915050565b60005b83811015620007875780820151818401526020810190506200076a565b8381111562000797576000848401525b50505050565b60006002820490506001821680620007b657607f821691505b60208210811415620007cd57620007cc620007d3565b5b50919050565b7f4e487b7100000000000000000000000000000000000000000000000000000000600052602260045260246000fd5b6000601f19601f8301169050919050565b613b8a80620008236000396000f3fe608060405234801561001057600080fd5b50600436106100ea5760003560e01c806370a082311161008c578063a22cb46511610066578063a22cb4651461025b578063b88d4fde14610277578063c87b56dd14610293578063e985e9c5146102c3576100ea565b806370a08231146101f157806395d89b4114610221578063a1535b481461023f576100ea565b8063095ea7b3116100c8578063095ea7b31461016d57806323b872dd1461018957806342842e0e146101a55780636352211e146101c1576100ea565b806301ffc9a7146100ef57806306fdde031461011f578063081812fc1461013d575b600080fd5b610109600480360381019061010491906122d2565b6102f3565b6040516101169190612b47565b60405180910390f35b6101276103d5565b6040516101349190612b62565b60405180910390f35b610157600480360381019061015291906123b7565b610467565b6040516101649190612ab7565b60405180910390f35b61018760048036038101906101829190612296565b6104ec565b005b6101a3600480360381019061019e9190612190565b610604565b005b6101bf60048036038101906101ba9190612190565b610664565b005b6101db60048036038101906101d691906123b7565b610684565b6040516101e89190612ab7565b60405180910390f35b61020b6004803603810190610206919061212b565b610736565b6040516102189190612e82565b60405180910390f35b6102296107ee565b6040516102369190612b62565b60405180910390f35b61025960048036038101906102549190612324565b610880565b005b6102756004803603810190610270919061225a565b610c1d565b005b610291600480360381019061028c91906121df565b610c33565b005b6102ad60048036038101906102a891906123b7565b610c95565b6040516102ba9190612b62565b60405180910390f35b6102dd60048036038101906102d89190612154565b610de7565b6040516102ea9190612b47565b60405180910390f35b60007f80ac58cd000000000000000000000000000000000000000000000000000000007bffffffffffffffffffffffffffffffffffffffffffffffffffffffff1916827bffffffffffffffffffffffffffffffffffffffffffffffffffffffff191614806103be57507f5b5e139f000000000000000000000000000000000000000000000000000000007bffffffffffffffffffffffffffffffffffffffffffffffffffffffff1916827bffffffffffffffffffffffffffffffffffffffffffffffffffffffff1916145b806103ce57506103cd82610f14565b5b9050919050565b6060600080546103e490613154565b80601f016020809104026020016040519081016040528092919081815260200182805461041090613154565b801561045d5780601f106104325761010080835404028352916020019161045d565b820191906000526020600020905b81548152906001019060200180831161044057829003601f168201915b5050505050905090565b600061047282610f7e565b6104b1576040517f08c379a00000000000000000000000000000000000000000000000000000000081526004016104a890612d82565b60405180910390fd5b6004600083815260200190815260200160002060009054906101000a900473ffffffffffffffffffffffffffffffffffffffff169050919050565b60006104f782610684565b90508073ffffffffffffffffffffffffffffffffffffffff168373ffffffffffffffffffffffffffffffffffffffff161415610568576040517f08c379a000000000000000000000000000000000000000000000000000000000815260040161055f90612e02565b60405180910390fd5b8073ffffffffffffffffffffffffffffffffffffffff16610587610fea565b73ffffffffffffffffffffffffffffffffffffffff1614806105b657506105b5816105b0610fea565b610de7565b5b6105f5576040517f08c379a00000000000000000000000000000000000000000000000000000000081526004016105ec90612cc2565b60405180910390fd5b6105ff8383610ff2565b505050565b61061561060f610fea565b826110ab565b610654576040517f08c379a000000000000000000000000000000000000000000000000000000000815260040161064b90612e42565b60405180910390fd5b61065f838383611189565b505050565b61067f83838360405180602001604052806000815250610c33565b505050565b6000806002600084815260200190815260200160002060009054906101000a900473ffffffffffffffffffffffffffffffffffffffff169050600073ffffffffffffffffffffffffffffffffffffffff168173ffffffffffffffffffffffffffffffffffffffff16141561072d576040517f08c379a000000000000000000000000000000000000000000000000000000000815260040161072490612d02565b60405180910390fd5b80915050919050565b60008073ffffffffffffffffffffffffffffffffffffffff168273ffffffffffffffffffffffffffffffffffffffff1614156107a7576040517f08c379a000000000000000000000000000000000000000000000000000000000815260040161079e90612ce2565b60405180910390fd5b600360008373ffffffffffffffffffffffffffffffffffffffff1673ffffffffffffffffffffffffffffffffffffffff168152602001908152602001600020549050919050565b6060600180546107fd90613154565b80601f016020809104026020016040519081016040528092919081815260200182805461082990613154565b80156108765780601f1061084b57610100808354040283529160200191610876565b820191906000526020600020905b81548152906001019060200180831161085957829003601f168201915b5050505050905090565b60008351116108c4576040517f08c379a00000000000000000000000000000000000000000000000000000000081526004016108bb90612e22565b60405180910390fd5b610119835110610909576040517f08c379a000000000000000000000000000000000000000000000000000000000815260040161090090612de2565b60405180910390fd5b600084511161094d576040517f08c379a000000000000000000000000000000000000000000000000000000000815260040161094490612da2565b60405180910390fd5b600b845110610991576040517f08c379a000000000000000000000000000000000000000000000000000000000815260040161098890612ca2565b60405180910390fd5b60068260ff16106109d7576040517f08c379a00000000000000000000000000000000000000000000000000000000081526004016109ce90612bc2565b60405180910390fd5b60068160ff1610610a1d576040517f08c379a0000000000000000000000000000000000000000000000000000000008152600401610a1490612e62565b60405180910390fd5b6000610a2960076113f0565b90506000600a60098560ff1681548110610a6c577f4e487b7100000000000000000000000000000000000000000000000000000000600052603260045260246000fd5b90600052602060002001600b60088660ff1681548110610ab5577f4e487b7100000000000000000000000000000000000000000000000000000000600052603260045260246000fd5b90600052602060002001600c8a8a604051602001610ad99796959493929190612990565b60405160208183030381529060405290506000610af5836113fe565b87604051602001610b07929190612a7d565b60405160208183030381529060405290506000610b4c82610b27856115ab565b604051602001610b38929190612a16565b6040516020818303038152906040526115ab565b9050600081604051602001610b619190612a5b565b6040516020818303038152906040529050610b7b81610e7b565b610b85338661174a565b610b8f8582611768565b610b9960076117dc565b610bd96040518060400160405280601281526020017f4c65747341736b204e4654206d696e746564000000000000000000000000000081525086336117f2565b7f8e2d16e8d2c39586c5f5c3e591adff4810db2d56b8a819539d1aca647438f2f73386604051610c0a929190612b1e565b60405180910390a1505050505050505050565b610c2f610c28610fea565b8383611891565b5050565b610c44610c3e610fea565b836110ab565b610c83576040517f08c379a0000000000000000000000000000000000000000000000000000000008152600401610c7a90612e42565b60405180910390fd5b610c8f848484846119fe565b50505050565b6060610ca082610f7e565b610cdf576040517f08c379a0000000000000000000000000000000000000000000000000000000008152600401610cd690612d62565b60405180910390fd5b6000600660008481526020019081526020016000208054610cff90613154565b80601f0160208091040260200160405190810160405280929190818152602001828054610d2b90613154565b8015610d785780601f10610d4d57610100808354040283529160200191610d78565b820191906000526020600020905b815481529060010190602001808311610d5b57829003601f168201915b505050505090506000610d89611a5a565b9050600081511415610d9f578192505050610de2565b600082511115610dd4578082604051602001610dbc92919061296c565b60405160208183030381529060405292505050610de2565b610ddd84611a71565b925050505b919050565b6000600560008473ffffffffffffffffffffffffffffffffffffffff1673ffffffffffffffffffffffffffffffffffffffff16815260200190815260200160002060008373ffffffffffffffffffffffffffffffffffffffff1673ffffffffffffffffffffffffffffffffffffffff16815260200190815260200160002060009054906101000a900460ff16905092915050565b610f1181604051602401610e8f9190612b62565b6040516020818303038152906040527f41304fac000000000000000000000000000000000000000000000000000000007bffffffffffffffffffffffffffffffffffffffffffffffffffffffff19166020820180517bffffffffffffffffffffffffffffffffffffffffffffffffffffffff8381831617835250505050611b18565b50565b60007f01ffc9a7000000000000000000000000000000000000000000000000000000007bffffffffffffffffffffffffffffffffffffffffffffffffffffffff1916827bffffffffffffffffffffffffffffffffffffffffffffffffffffffff1916149050919050565b60008073ffffffffffffffffffffffffffffffffffffffff166002600084815260200190815260200160002060009054906101000a900473ffffffffffffffffffffffffffffffffffffffff1673ffffffffffffffffffffffffffffffffffffffff1614159050919050565b600033905090565b816004600083815260200190815260200160002060006101000a81548173ffffffffffffffffffffffffffffffffffffffff021916908373ffffffffffffffffffffffffffffffffffffffff160217905550808273ffffffffffffffffffffffffffffffffffffffff1661106583610684565b73ffffffffffffffffffffffffffffffffffffffff167f8c5be1e5ebec7d5bd14f71427d1e84f3dd0314c0f7b2291e5b200ac8c7c3b92560405160405180910390a45050565b60006110b682610f7e565b6110f5576040517f08c379a00000000000000000000000000000000000000000000000000000000081526004016110ec90612c82565b60405180910390fd5b600061110083610684565b90508073ffffffffffffffffffffffffffffffffffffffff168473ffffffffffffffffffffffffffffffffffffffff16148061116f57508373ffffffffffffffffffffffffffffffffffffffff1661115784610467565b73ffffffffffffffffffffffffffffffffffffffff16145b80611180575061117f8185610de7565b5b91505092915050565b8273ffffffffffffffffffffffffffffffffffffffff166111a982610684565b73ffffffffffffffffffffffffffffffffffffffff16146111ff576040517f08c379a00000000000000000000000000000000000000000000000000000000081526004016111f690612c02565b60405180910390fd5b600073ffffffffffffffffffffffffffffffffffffffff168273ffffffffffffffffffffffffffffffffffffffff16141561126f576040517f08c379a000000000000000000000000000000000000000000000000000000000815260040161126690612c42565b60405180910390fd5b61127a838383611b41565b611285600082610ff2565b6001600360008573ffffffffffffffffffffffffffffffffffffffff1673ffffffffffffffffffffffffffffffffffffffff16815260200190815260200160002060008282546112d5919061305d565b925050819055506001600360008473ffffffffffffffffffffffffffffffffffffffff1673ffffffffffffffffffffffffffffffffffffffff168152602001908152602001600020600082825461132c9190612f7c565b92505081905550816002600083815260200190815260200160002060006101000a81548173ffffffffffffffffffffffffffffffffffffffff021916908373ffffffffffffffffffffffffffffffffffffffff160217905550808273ffffffffffffffffffffffffffffffffffffffff168473ffffffffffffffffffffffffffffffffffffffff167fddf252ad1be2c89b69c2b068fc378daa952ba7f163c4a11628f55a4df523b3ef60405160405180910390a46113eb838383611b46565b505050565b600081600001549050919050565b60606000821415611446576040518060400160405280600181526020017f300000000000000000000000000000000000000000000000000000000000000081525090506115a6565b600082905060005b60008214611478578080611461906131b7565b915050600a826114719190612fd2565b915061144e565b60008167ffffffffffffffff8111156114ba577f4e487b7100000000000000000000000000000000000000000000000000000000600052604160045260246000fd5b6040519080825280601f01601f1916602001820160405280156114ec5781602001600182028036833780820191505090505b5090505b6000851461159f57600182611505919061305d565b9150600a856115149190613200565b60306115209190612f7c565b60f81b81838151811061155c577f4e487b7100000000000000000000000000000000000000000000000000000000600052603260045260246000fd5b60200101907effffffffffffffffffffffffffffffffffffffffffffffffffffffffffffff1916908160001a905350600a856115989190612fd2565b94506114f0565b8093505050505b919050565b60606000825114156115ce57604051806020016040528060008152509050611745565b6000604051806060016040528060408152602001613b1560409139905060006003600285516115fd9190612f7c565b6116079190612fd2565b60046116139190613003565b905060006020826116249190612f7c565b67ffffffffffffffff811115611663577f4e487b7100000000000000000000000000000000000000000000000000000000600052604160045260246000fd5b6040519080825280601f01601f1916602001820160405280156116955781602001600182028036833780820191505090505b509050818152600183018586518101602084015b81831015611704576003830192508251603f8160121c168501518253600182019150603f81600c1c168501518253600182019150603f8160061c168501518253600182019150603f81168501518253600182019150506116a9565b60038951066001811461171e576002811461172e57611739565b613d3d60f01b6002830352611739565b603d60f81b60018303525b50505050508093505050505b919050565b611764828260405180602001604052806000815250611b4b565b5050565b61177182610f7e565b6117b0576040517f08c379a00000000000000000000000000000000000000000000000000000000081526004016117a790612d22565b60405180910390fd5b806006600084815260200190815260200160002090805190602001906117d7929190611f3a565b505050565b6001816000016000828254019250508190555050565b61188c83838360405160240161180a93929190612b84565b6040516020818303038152906040527fe3849f79000000000000000000000000000000000000000000000000000000007bffffffffffffffffffffffffffffffffffffffffffffffffffffffff19166020820180517bffffffffffffffffffffffffffffffffffffffffffffffffffffffff8381831617835250505050611b18565b505050565b8173ffffffffffffffffffffffffffffffffffffffff168373ffffffffffffffffffffffffffffffffffffffff161415611900576040517f08c379a00000000000000000000000000000000000000000000000000000000081526004016118f790612c62565b60405180910390fd5b80600560008573ffffffffffffffffffffffffffffffffffffffff1673ffffffffffffffffffffffffffffffffffffffff16815260200190815260200160002060008473ffffffffffffffffffffffffffffffffffffffff1673ffffffffffffffffffffffffffffffffffffffff16815260200190815260200160002060006101000a81548160ff0219169083151502179055508173ffffffffffffffffffffffffffffffffffffffff168373ffffffffffffffffffffffffffffffffffffffff167f17307eab39ab6107e8899845ad3d59bd9653f200f220920489ca2b5937696c31836040516119f19190612b47565b60405180910390a3505050565b611a09848484611189565b611a1584848484611ba6565b611a54576040517f08c379a0000000000000000000000000000000000000000000000000000000008152600401611a4b90612be2565b60405180910390fd5b50505050565b606060405180602001604052806000815250905090565b6060611a7c82610f7e565b611abb576040517f08c379a0000000000000000000000000000000000000000000000000000000008152600401611ab290612dc2565b60405180910390fd5b6000611ac5611a5a565b90506000815111611ae55760405180602001604052806000815250611b10565b80611aef846113fe565b604051602001611b0092919061296c565b6040516020818303038152906040525b915050919050565b60008151905060006a636f6e736f6c652e6c6f679050602083016000808483855afa5050505050565b505050565b505050565b611b558383611d3d565b611b626000848484611ba6565b611ba1576040517f08c379a0000000000000000000000000000000000000000000000000000000008152600401611b9890612be2565b60405180910390fd5b505050565b6000611bc78473ffffffffffffffffffffffffffffffffffffffff16611f17565b15611d30578373ffffffffffffffffffffffffffffffffffffffff1663150b7a02611bf0610fea565b8786866040518563ffffffff1660e01b8152600401611c129493929190612ad2565b602060405180830381600087803b158015611c2c57600080fd5b505af1925050508015611c5d57506040513d601f19601f82011682018060405250810190611c5a91906122fb565b60015b611ce0573d8060008114611c8d576040519150601f19603f3d011682016040523d82523d6000602084013e611c92565b606091505b50600081511415611cd8576040517f08c379a0000000000000000000000000000000000000000000000000000000008152600401611ccf90612be2565b60405180910390fd5b805181602001fd5b63150b7a0260e01b7bffffffffffffffffffffffffffffffffffffffffffffffffffffffff1916817bffffffffffffffffffffffffffffffffffffffffffffffffffffffff191614915050611d35565b600190505b949350505050565b600073ffffffffffffffffffffffffffffffffffffffff168273ffffffffffffffffffffffffffffffffffffffff161415611dad576040517f08c379a0000000000000000000000000000000000000000000000000000000008152600401611da490612d42565b60405180910390fd5b611db681610f7e565b15611df6576040517f08c379a0000000000000000000000000000000000000000000000000000000008152600401611ded90612c22565b60405180910390fd5b611e0260008383611b41565b6001600360008473ffffffffffffffffffffffffffffffffffffffff1673ffffffffffffffffffffffffffffffffffffffff1681526020019081526020016000206000828254611e529190612f7c565b92505081905550816002600083815260200190815260200160002060006101000a81548173ffffffffffffffffffffffffffffffffffffffff021916908373ffffffffffffffffffffffffffffffffffffffff160217905550808273ffffffffffffffffffffffffffffffffffffffff16600073ffffffffffffffffffffffffffffffffffffffff167fddf252ad1be2c89b69c2b068fc378daa952ba7f163c4a11628f55a4df523b3ef60405160405180910390a4611f1360008383611b46565b5050565b6000808273ffffffffffffffffffffffffffffffffffffffff163b119050919050565b828054611f4690613154565b90600052602060002090601f016020900481019282611f685760008555611faf565b82601f10611f8157805160ff1916838001178555611faf565b82800160010185558215611faf579182015b82811115611fae578251825591602001919060010190611f93565b5b509050611fbc9190611fc0565b5090565b5b80821115611fd9576000816000905550600101611fc1565b5090565b6000611ff0611feb84612ec2565b612e9d565b90508281526020810184848401111561200857600080fd5b612013848285613112565b509392505050565b600061202e61202984612ef3565b612e9d565b90508281526020810184848401111561204657600080fd5b612051848285613112565b509392505050565b60008135905061206881613aa1565b92915050565b60008135905061207d81613ab8565b92915050565b60008135905061209281613acf565b92915050565b6000815190506120a781613acf565b92915050565b600082601f8301126120be57600080fd5b81356120ce848260208601611fdd565b91505092915050565b600082601f8301126120e857600080fd5b81356120f884826020860161201b565b91505092915050565b60008135905061211081613ae6565b92915050565b60008135905061212581613afd565b92915050565b60006020828403121561213d57600080fd5b600061214b84828501612059565b91505092915050565b6000806040838503121561216757600080fd5b600061217585828601612059565b925050602061218685828601612059565b9150509250929050565b6000806000606084860312156121a557600080fd5b60006121b386828701612059565b93505060206121c486828701612059565b92505060406121d586828701612101565b9150509250925092565b600080600080608085870312156121f557600080fd5b600061220387828801612059565b945050602061221487828801612059565b935050604061222587828801612101565b925050606085013567ffffffffffffffff81111561224257600080fd5b61224e878288016120ad565b91505092959194509250565b6000806040838503121561226d57600080fd5b600061227b85828601612059565b925050602061228c8582860161206e565b9150509250929050565b600080604083850312156122a957600080fd5b60006122b785828601612059565b92505060206122c885828601612101565b9150509250929050565b6000602082840312156122e457600080fd5b60006122f284828501612083565b91505092915050565b60006020828403121561230d57600080fd5b600061231b84828501612098565b91505092915050565b6000806000806080858703121561233a57600080fd5b600085013567ffffffffffffffff81111561235457600080fd5b612360878288016120d7565b945050602085013567ffffffffffffffff81111561237d57600080fd5b612389878288016120d7565b935050604061239a87828801612116565b92505060606123ab87828801612116565b91505092959194509250565b6000602082840312156123c957600080fd5b60006123d784828501612101565b91505092915050565b6123e981613091565b82525050565b6123f8816130a3565b82525050565b600061240982612f39565b6124138185612f4f565b9350612423818560208601613121565b61242c816132ed565b840191505092915050565b600061244282612f44565b61244c8185612f60565b935061245c818560208601613121565b612465816132ed565b840191505092915050565b600061247b82612f44565b6124858185612f71565b9350612495818560208601613121565b80840191505092915050565b600081546124ae81613154565b6124b88186612f71565b945060018216600081146124d357600181146124e457612517565b60ff19831686528186019350612517565b6124ed85612f24565b60005b8381101561250f578154818901526001820191506020810190506124f0565b838801955050505b50505092915050565b600061252d602d83612f60565b9150612538826132fe565b604082019050919050565b6000612550603283612f60565b915061255b8261334d565b604082019050919050565b6000612573602583612f60565b915061257e8261339c565b604082019050919050565b6000612596601c83612f60565b91506125a1826133eb565b602082019050919050565b60006125b9600183612f71565b91506125c482613414565b600182019050919050565b60006125dc602483612f60565b91506125e78261343d565b604082019050919050565b60006125ff601983612f60565b915061260a8261348c565b602082019050919050565b6000612622602c83612f60565b915061262d826134b5565b604082019050919050565b6000612645600683612f71565b915061265082613504565b600682019050919050565b6000612668600d83612f71565b91506126738261352d565b600d82019050919050565b600061268b602983612f60565b915061269682613556565b604082019050919050565b60006126ae603883612f60565b91506126b9826135a5565b604082019050919050565b60006126d1602a83612f60565b91506126dc826135f4565b604082019050919050565b60006126f4602983612f60565b91506126ff82613643565b604082019050919050565b6000612717602e83612f60565b915061272282613692565b604082019050919050565b600061273a600283612f71565b9150612745826136e1565b600282019050919050565b600061275d602083612f60565b91506127688261370a565b602082019050919050565b6000612780603183612f60565b915061278b82613733565b604082019050919050565b60006127a3602c83612f60565b91506127ae82613782565b604082019050919050565b60006127c6600e83612f60565b91506127d1826137d1565b602082019050919050565b60006127e9600383612f71565b91506127f4826137fa565b600382019050919050565b600061280c602f83612f60565b915061281782613823565b604082019050919050565b600061282f600a83612f71565b915061283a82613872565b600a82019050919050565b6000612852601e83612f60565b915061285d8261389b565b602082019050919050565b6000612875605c83612f71565b9150612880826138c4565b605c82019050919050565b6000612898602183612f60565b91506128a382613939565b604082019050919050565b60006128bb601d83612f71565b91506128c682613988565b601d82019050919050565b60006128de601683612f60565b91506128e9826139b1565b602082019050919050565b6000612901603183612f60565b915061290c826139da565b604082019050919050565b6000612924600283612f71565b915061292f82613a29565b600282019050919050565b6000612947602a83612f60565b915061295282613a52565b604082019050919050565b612966816130fb565b82525050565b60006129788285612470565b91506129848284612470565b91508190509392505050565b600061299c828a6124a1565b91506129a882896124a1565b91506129b482886124a1565b91506129c082876124a1565b91506129cc82866124a1565b91506129d782612638565b91506129e38285612470565b91506129ee826125ac565b91506129fa8284612470565b9150612a058261265b565b915081905098975050505050505050565b6000612a2182612822565b9150612a2d8285612470565b9150612a3882612868565b9150612a448284612470565b9150612a4f8261272d565b91508190509392505050565b6000612a66826128ae565b9150612a728284612470565b915081905092915050565b6000612a8882612917565b9150612a948285612470565b9150612a9f826127dc565b9150612aab8284612470565b91508190509392505050565b6000602082019050612acc60008301846123e0565b92915050565b6000608082019050612ae760008301876123e0565b612af460208301866123e0565b612b01604083018561295d565b8181036060830152612b1381846123fe565b905095945050505050565b6000604082019050612b3360008301856123e0565b612b40602083018461295d565b9392505050565b6000602082019050612b5c60008301846123ef565b92915050565b60006020820190508181036000830152612b7c8184612437565b905092915050565b60006060820190508181036000830152612b9e8186612437565b9050612bad602083018561295d565b612bba60408301846123e0565b949350505050565b60006020820190508181036000830152612bdb81612520565b9050919050565b60006020820190508181036000830152612bfb81612543565b9050919050565b60006020820190508181036000830152612c1b81612566565b9050919050565b60006020820190508181036000830152612c3b81612589565b9050919050565b60006020820190508181036000830152612c5b816125cf565b9050919050565b60006020820190508181036000830152612c7b816125f2565b9050919050565b60006020820190508181036000830152612c9b81612615565b9050919050565b60006020820190508181036000830152612cbb8161267e565b9050919050565b60006020820190508181036000830152612cdb816126a1565b9050919050565b60006020820190508181036000830152612cfb816126c4565b9050919050565b60006020820190508181036000830152612d1b816126e7565b9050919050565b60006020820190508181036000830152612d3b8161270a565b9050919050565b60006020820190508181036000830152612d5b81612750565b9050919050565b60006020820190508181036000830152612d7b81612773565b9050919050565b60006020820190508181036000830152612d9b81612796565b9050919050565b60006020820190508181036000830152612dbb816127b9565b9050919050565b60006020820190508181036000830152612ddb816127ff565b9050919050565b60006020820190508181036000830152612dfb81612845565b9050919050565b60006020820190508181036000830152612e1b8161288b565b9050919050565b60006020820190508181036000830152612e3b816128d1565b9050919050565b60006020820190508181036000830152612e5b816128f4565b9050919050565b60006020820190508181036000830152612e7b8161293a565b9050919050565b6000602082019050612e97600083018461295d565b92915050565b6000612ea7612eb8565b9050612eb38282613186565b919050565b6000604051905090565b600067ffffffffffffffff821115612edd57612edc6132be565b5b612ee6826132ed565b9050602081019050919050565b600067ffffffffffffffff821115612f0e57612f0d6132be565b5b612f17826132ed565b9050602081019050919050565b60008190508160005260206000209050919050565b600081519050919050565b600081519050919050565b600082825260208201905092915050565b600082825260208201905092915050565b600081905092915050565b6000612f87826130fb565b9150612f92836130fb565b9250827fffffffffffffffffffffffffffffffffffffffffffffffffffffffffffffffff03821115612fc757612fc6613231565b5b828201905092915050565b6000612fdd826130fb565b9150612fe8836130fb565b925082612ff857612ff7613260565b5b828204905092915050565b600061300e826130fb565b9150613019836130fb565b9250817fffffffffffffffffffffffffffffffffffffffffffffffffffffffffffffffff048311821515161561305257613051613231565b5b828202905092915050565b6000613068826130fb565b9150613073836130fb565b92508282101561308657613085613231565b5b828203905092915050565b600061309c826130db565b9050919050565b60008115159050919050565b60007fffffffff0000000000000000000000000000000000000000000000000000000082169050919050565b600073ffffffffffffffffffffffffffffffffffffffff82169050919050565b6000819050919050565b600060ff82169050919050565b82818337600083830152505050565b60005b8381101561313f578082015181840152602081019050613124565b8381111561314e576000848401525b50505050565b6000600282049050600182168061316c57607f821691505b602082108114156131805761317f61328f565b5b50919050565b61318f826132ed565b810181811067ffffffffffffffff821117156131ae576131ad6132be565b5b80604052505050565b60006131c2826130fb565b91507fffffffffffffffffffffffffffffffffffffffffffffffffffffffffffffffff8214156131f5576131f4613231565b5b600182019050919050565b600061320b826130fb565b9150613216836130fb565b92508261322657613225613260565b5b828206905092915050565b7f4e487b7100000000000000000000000000000000000000000000000000000000600052601160045260246000fd5b7f4e487b7100000000000000000000000000000000000000000000000000000000600052601260045260246000fd5b7f4e487b7100000000000000000000000000000000000000000000000000000000600052602260045260246000fd5b7f4e487b7100000000000000000000000000000000000000000000000000000000600052604160045260246000fd5b6000601f19601f8301169050919050565b7f57726f6e67207465787420636f6c6f722076616c75652e2053686f756c64206260008201527f65206c657373207468616e203600000000000000000000000000000000000000602082015250565b7f4552433732313a207472616e7366657220746f206e6f6e20455243373231526560008201527f63656976657220696d706c656d656e7465720000000000000000000000000000602082015250565b7f4552433732313a207472616e736665722066726f6d20696e636f72726563742060008201527f6f776e6572000000000000000000000000000000000000000000000000000000602082015250565b7f4552433732313a20746f6b656e20616c7265616479206d696e74656400000000600082015250565b7f2c00000000000000000000000000000000000000000000000000000000000000600082015250565b7f4552433732313a207472616e7366657220746f20746865207a65726f2061646460008201527f7265737300000000000000000000000000000000000000000000000000000000602082015250565b7f4552433732313a20617070726f766520746f2063616c6c657200000000000000600082015250565b7f4552433732313a206f70657261746f7220717565727920666f72206e6f6e657860008201527f697374656e7420746f6b656e0000000000000000000000000000000000000000602082015250565b7f48656c6c6f200000000000000000000000000000000000000000000000000000600082015250565b7f3c2f746578743e3c2f7376673e00000000000000000000000000000000000000600082015250565b7f4d6f7265207468616e20313020636861726163746572206c656e677468206f6660008201527f20746f206669656c640000000000000000000000000000000000000000000000602082015250565b7f4552433732313a20617070726f76652063616c6c6572206973206e6f74206f7760008201527f6e6572206e6f7220617070726f76656420666f7220616c6c0000000000000000602082015250565b7f4552433732313a2062616c616e636520717565727920666f7220746865207a6560008201527f726f206164647265737300000000000000000000000000000000000000000000602082015250565b7f4552433732313a206f776e657220717565727920666f72206e6f6e657869737460008201527f656e7420746f6b656e0000000000000000000000000000000000000000000000602082015250565b7f45524337323155524953746f726167653a2055524920736574206f66206e6f6e60008201527f6578697374656e7420746f6b656e000000000000000000000000000000000000602082015250565b7f227d000000000000000000000000000000000000000000000000000000000000600082015250565b7f4552433732313a206d696e7420746f20746865207a65726f2061646472657373600082015250565b7f45524337323155524953746f726167653a2055524920717565727920666f722060008201527f6e6f6e6578697374656e7420746f6b656e000000000000000000000000000000602082015250565b7f4552433732313a20617070726f76656420717565727920666f72206e6f6e657860008201527f697374656e7420746f6b656e0000000000000000000000000000000000000000602082015250565b7f456d70747920546f204669656c64000000000000000000000000000000000000600082015250565b7f202d200000000000000000000000000000000000000000000000000000000000600082015250565b7f4552433732314d657461646174613a2055524920717565727920666f72206e6f60008201527f6e6578697374656e7420746f6b656e0000000000000000000000000000000000602082015250565b7f7b226e616d65223a202200000000000000000000000000000000000000000000600082015250565b7f4d6f7265207468616e2032383020636861726163746572206c656e6774680000600082015250565b7f222c20226465736372697074696f6e223a20224c6574732041736b202d20517560008201527f657374696f6e20746865207374617475732051756f222c2022696d616765223a60208201527f2022646174613a696d6167652f7376672b786d6c3b6261736536342c00000000604082015250565b7f4552433732313a20617070726f76616c20746f2063757272656e74206f776e6560008201527f7200000000000000000000000000000000000000000000000000000000000000602082015250565b7f646174613a6170706c69636174696f6e2f6a736f6e3b6261736536342c000000600082015250565b7f456d707479207175657374696f6e20746f206d696e7400000000000000000000600082015250565b7f4552433732313a207472616e736665722063616c6c6572206973206e6f74206f60008201527f776e6572206e6f7220617070726f766564000000000000000000000000000000602082015250565b7f5123000000000000000000000000000000000000000000000000000000000000600082015250565b7f57726f6e67206267436f6c6f722076616c75652e2053686f756c64206265206c60008201527f657373207468616e203600000000000000000000000000000000000000000000602082015250565b613aaa81613091565b8114613ab557600080fd5b50565b613ac1816130a3565b8114613acc57600080fd5b50565b613ad8816130af565b8114613ae357600080fd5b50565b613aef816130fb565b8114613afa57600080fd5b50565b613b0681613105565b8114613b1157600080fd5b5056fe4142434445464748494a4b4c4d4e4f505152535455565758595a6162636465666768696a6b6c6d6e6f707172737475767778797a303132333435363738392b2fa2646970667358221220308a7bebe230d4203715d3b56ffc7c5947dfd8e277a28e54cfb0f7d58af68dbf64736f6c634300080400333b20666f6e742d66616d696c793a20636f7572696572206e65773b20666f6e742d73697a653a20323470783b207d3c2f7374796c653e3c726563742077696474683d273130302527206865696768743d2731303025272066696c6c3d27272f3e3c7465787420783d273530252720793d273530252720636c6173733d27626173652720646f6d696e616e742d626173656c696e653d276d6964646c652720746578742d616e63686f723d276d6964646c65273e3c73766720786d6c6e733d27687474703a2f2f7777772e77332e6f72672f323030302f73766727207072657365727665417370656374526174696f3d27784d696e594d696e206d656574272076696577426f783d273020302033353020333530273e3c7374796c653e2e62617365207b2066696c6c3a20",
  "linkReferences": {},
  "deployedLinkReferences": {}
}